{
  "contractName": "Stake",
  "abi": [
    {
      "constant": true,
      "inputs": [
        {
          "name": "",
          "type": "address"
        }
      ],
      "name": "totalStakAmtInWei",
      "outputs": [
        {
          "name": "",
          "type": "uint256"
        }
      ],
      "payable": false,
      "stateMutability": "view",
      "type": "function"
    },
    {
      "constant": true,
      "inputs": [
        {
          "name": "",
          "type": "address"
        }
      ],
      "name": "isWhiteListOracle",
      "outputs": [
        {
          "name": "",
          "type": "bool"
        }
      ],
      "payable": false,
      "stateMutability": "view",
      "type": "function"
    },
    {
      "constant": false,
      "inputs": [
        {
          "name": "newManagerAddr",
          "type": "address"
        }
      ],
      "name": "updateRoleManager",
      "outputs": [
        {
          "name": "",
          "type": "bool"
        }
      ],
      "payable": false,
      "stateMutability": "nonpayable",
      "type": "function"
    },
    {
      "constant": true,
      "inputs": [],
      "name": "lastOperationTime",
      "outputs": [
        {
          "name": "",
          "type": "uint256"
        }
      ],
      "payable": false,
      "stateMutability": "view",
      "type": "function"
    },
    {
      "constant": true,
      "inputs": [
        {
          "name": "",
          "type": "uint256"
        }
      ],
      "name": "oracleList",
      "outputs": [
        {
          "name": "",
          "type": "address"
        }
      ],
      "payable": false,
      "stateMutability": "view",
      "type": "function"
    },
    {
      "constant": true,
      "inputs": [],
      "name": "maxOracleStakeAmtInWei",
      "outputs": [
        {
          "name": "",
          "type": "uint256"
        }
      ],
      "payable": false,
      "stateMutability": "view",
      "type": "function"
    },
    {
      "constant": true,
      "inputs": [
        {
          "name": "",
          "type": "uint256"
        }
      ],
      "name": "users",
      "outputs": [
        {
          "name": "",
          "type": "address"
        }
      ],
      "payable": false,
      "stateMutability": "view",
      "type": "function"
    },
    {
      "constant": true,
      "inputs": [],
      "name": "operationCoolDown",
      "outputs": [
        {
          "name": "",
          "type": "uint256"
        }
      ],
      "payable": false,
      "stateMutability": "view",
      "type": "function"
    },
    {
      "constant": true,
      "inputs": [],
      "name": "operator",
      "outputs": [
        {
          "name": "",
          "type": "address"
        }
      ],
      "payable": false,
      "stateMutability": "view",
      "type": "function"
    },
    {
      "constant": true,
      "inputs": [],
      "name": "canStake",
      "outputs": [
        {
          "name": "",
          "type": "bool"
        }
      ],
      "payable": false,
      "stateMutability": "view",
      "type": "function"
    },
    {
      "constant": true,
      "inputs": [
        {
          "name": "",
          "type": "address"
        }
      ],
      "name": "existingUsers",
      "outputs": [
        {
          "name": "",
          "type": "uint256"
        }
      ],
      "payable": false,
      "stateMutability": "view",
      "type": "function"
    },
    {
      "constant": true,
      "inputs": [
        {
          "name": "",
          "type": "address"
        }
      ],
      "name": "awardsInWei",
      "outputs": [
        {
          "name": "",
          "type": "uint256"
        }
      ],
      "payable": false,
      "stateMutability": "view",
      "type": "function"
    },
    {
      "constant": true,
      "inputs": [],
      "name": "roleManagerAddress",
      "outputs": [
        {
          "name": "",
          "type": "address"
        }
      ],
      "payable": false,
      "stateMutability": "view",
      "type": "function"
    },
    {
      "constant": true,
      "inputs": [
        {
          "name": "",
          "type": "address"
        },
        {
          "name": "",
          "type": "address"
        },
        {
          "name": "",
          "type": "uint256"
        }
      ],
      "name": "userStakeQueue",
      "outputs": [
        {
          "name": "timestamp",
          "type": "uint256"
        },
        {
          "name": "amtInWei",
          "type": "uint256"
        }
      ],
      "payable": false,
      "stateMutability": "view",
      "type": "function"
    },
    {
      "constant": false,
      "inputs": [],
      "name": "updateOperator",
      "outputs": [
        {
          "name": "",
          "type": "bool"
        }
      ],
      "payable": false,
      "stateMutability": "nonpayable",
      "type": "function"
    },
    {
      "constant": true,
      "inputs": [],
      "name": "minStakeAmtInWei",
      "outputs": [
        {
          "name": "",
          "type": "uint256"
        }
      ],
      "payable": false,
      "stateMutability": "view",
      "type": "function"
    },
    {
      "constant": true,
      "inputs": [],
      "name": "lockMinTimeInSecond",
      "outputs": [
        {
          "name": "",
          "type": "uint256"
        }
      ],
      "payable": false,
      "stateMutability": "view",
      "type": "function"
    },
    {
      "constant": true,
      "inputs": [],
      "name": "duoTokenAddress",
      "outputs": [
        {
          "name": "",
          "type": "address"
        }
      ],
      "payable": false,
      "stateMutability": "view",
      "type": "function"
    },
    {
      "constant": true,
      "inputs": [],
      "name": "canUnstake",
      "outputs": [
        {
          "name": "",
          "type": "bool"
        }
      ],
      "payable": false,
      "stateMutability": "view",
      "type": "function"
    },
    {
      "constant": true,
      "inputs": [
        {
          "name": "",
          "type": "address"
        },
        {
          "name": "",
          "type": "address"
        }
      ],
      "name": "userQueueIdx",
      "outputs": [
        {
          "name": "first",
          "type": "uint256"
        },
        {
          "name": "last",
          "type": "uint256"
        }
      ],
      "payable": false,
      "stateMutability": "view",
      "type": "function"
    },
    {
      "constant": true,
      "inputs": [],
      "name": "totalAwardsToDistributeInWei",
      "outputs": [
        {
          "name": "",
          "type": "uint256"
        }
      ],
      "payable": false,
      "stateMutability": "view",
      "type": "function"
    },
    {
      "inputs": [
        {
          "name": "duoTokenAddr",
          "type": "address"
        },
        {
          "name": "oracleAddrList",
          "type": "address[]"
        },
        {
          "name": "lockTime",
          "type": "uint256"
        },
        {
          "name": "minStakeAmt",
          "type": "uint256"
        },
        {
          "name": "maxStakePerOracle",
          "type": "uint256"
        },
        {
          "name": "roleManagerAddr",
          "type": "address"
        },
        {
          "name": "opt",
          "type": "address"
        },
        {
          "name": "optCoolDown",
          "type": "uint256"
        }
      ],
      "payable": false,
      "stateMutability": "nonpayable",
      "type": "constructor"
    },
    {
      "anonymous": false,
      "inputs": [
        {
          "indexed": true,
          "name": "from",
          "type": "address"
        },
        {
          "indexed": true,
          "name": "oracle",
          "type": "address"
        },
        {
          "indexed": false,
          "name": "amtInWei",
          "type": "uint256"
        }
      ],
      "name": "AddStake",
      "type": "event"
    },
    {
      "anonymous": false,
      "inputs": [
        {
          "indexed": true,
          "name": "from",
          "type": "address"
        },
        {
          "indexed": true,
          "name": "oracle",
          "type": "address"
        },
        {
          "indexed": false,
          "name": "amtInWei",
          "type": "uint256"
        }
      ],
      "name": "Unstake",
      "type": "event"
    },
    {
      "anonymous": false,
      "inputs": [
        {
          "indexed": false,
          "name": "index",
          "type": "uint256"
        },
        {
          "indexed": false,
          "name": "oldValue",
          "type": "uint256"
        },
        {
          "indexed": false,
          "name": "newValue",
          "type": "uint256"
        }
      ],
      "name": "SetValue",
      "type": "event"
    },
    {
      "anonymous": false,
      "inputs": [
        {
          "indexed": false,
          "name": "staker",
          "type": "address"
        },
        {
          "indexed": false,
          "name": "awardAmtInWei",
          "type": "uint256"
        }
      ],
      "name": "AddAward",
      "type": "event"
    },
    {
      "anonymous": false,
      "inputs": [
        {
          "indexed": false,
          "name": "staker",
          "type": "address"
        },
        {
          "indexed": false,
          "name": "awardAmtInWei",
          "type": "uint256"
        }
      ],
      "name": "ReduceAward",
      "type": "event"
    },
    {
      "anonymous": false,
      "inputs": [
        {
          "indexed": false,
          "name": "claimer",
          "type": "address"
        },
        {
          "indexed": false,
          "name": "awardAmtInWei",
          "type": "uint256"
        }
      ],
      "name": "ClaimAward",
      "type": "event"
    },
    {
      "anonymous": false,
      "inputs": [
        {
          "indexed": false,
          "name": "newManagerAddress",
          "type": "address"
        }
      ],
      "name": "UpdateRoleManager",
      "type": "event"
    },
    {
      "anonymous": false,
      "inputs": [
        {
          "indexed": false,
          "name": "updater",
          "type": "address"
        },
        {
          "indexed": false,
          "name": "newOperator",
          "type": "address"
        }
      ],
      "name": "UpdateOperator",
      "type": "event"
    },
    {
      "constant": false,
      "inputs": [
        {
          "name": "oracleAddr",
          "type": "address"
        },
        {
          "name": "amtInWei",
          "type": "uint256"
        }
      ],
      "name": "stake",
      "outputs": [
        {
          "name": "",
          "type": "bool"
        }
      ],
      "payable": false,
      "stateMutability": "nonpayable",
      "type": "function"
    },
    {
      "constant": false,
      "inputs": [
        {
          "name": "oracleAddr",
          "type": "address"
        }
      ],
      "name": "unstake",
      "outputs": [
        {
          "name": "",
          "type": "bool"
        }
      ],
      "payable": false,
      "stateMutability": "nonpayable",
      "type": "function"
    },
    {
      "constant": false,
      "inputs": [
        {
          "name": "addrsList",
          "type": "address[]"
        },
        {
          "name": "amtInWeiList",
          "type": "uint256[]"
        }
      ],
      "name": "batchAddAward",
      "outputs": [
        {
          "name": "",
          "type": "bool"
        }
      ],
      "payable": false,
      "stateMutability": "nonpayable",
      "type": "function"
    },
    {
      "constant": false,
      "inputs": [
        {
          "name": "addrsList",
          "type": "address[]"
        },
        {
          "name": "amtInWeiList",
          "type": "uint256[]"
        }
      ],
      "name": "batchReduceAward",
      "outputs": [
        {
          "name": "",
          "type": "bool"
        }
      ],
      "payable": false,
      "stateMutability": "nonpayable",
      "type": "function"
    },
    {
      "constant": false,
      "inputs": [
        {
          "name": "isAll",
          "type": "bool"
        },
        {
          "name": "amtInWei",
          "type": "uint256"
        }
      ],
      "name": "claimAward",
      "outputs": [
        {
          "name": "",
          "type": "bool"
        }
      ],
      "payable": false,
      "stateMutability": "nonpayable",
      "type": "function"
    },
    {
      "constant": false,
      "inputs": [
        {
          "name": "stake",
          "type": "bool"
        },
        {
          "name": "unstake",
          "type": "bool"
        }
      ],
      "name": "setStakeFlag",
      "outputs": [
        {
          "name": "",
          "type": "bool"
        }
      ],
      "payable": false,
      "stateMutability": "nonpayable",
      "type": "function"
    },
    {
      "constant": true,
      "inputs": [],
      "name": "getOracleSize",
      "outputs": [
        {
          "name": "size",
          "type": "uint256"
        }
      ],
      "payable": false,
      "stateMutability": "view",
      "type": "function"
    },
    {
      "constant": true,
      "inputs": [],
      "name": "getUserSize",
      "outputs": [
        {
          "name": "",
          "type": "uint256"
        }
      ],
      "payable": false,
      "stateMutability": "view",
      "type": "function"
    },
    {
      "constant": false,
      "inputs": [
        {
          "name": "idx",
          "type": "uint256"
        },
        {
          "name": "newValue",
          "type": "uint256"
        }
      ],
      "name": "setValue",
      "outputs": [
        {
          "name": "success",
          "type": "bool"
        }
      ],
      "payable": false,
      "stateMutability": "nonpayable",
      "type": "function"
    }
  ],
  "bytecode": "0x6080604052681b1ae4d6e2ef500000600855692a5a058fc295ed0000006009556000600a553480156200003157600080fd5b5060405162003df938038062003df983398101806040526101008110156200005857600080fd5b810190808051906020019092919080516401000000008111156200007b57600080fd5b828101905060208101848111156200009257600080fd5b8151856020820283011164010000000082111715620000b057600080fd5b505092919060200180519060200190929190805190602001909291908051906020019092919080519060200190929190805190602001909291908051906020019092919050505082828282600160006101000a81548173ffffffffffffffffffffffffffffffffffffffff021916908373ffffffffffffffffffffffffffffffffffffffff160217905550826000806101000a81548173ffffffffffffffffffffffffffffffffffffffff021916908373ffffffffffffffffffffffffffffffffffffffff16021790555081600260006101000a81548173ffffffffffffffffffffffffffffffffffffffff021916908373ffffffffffffffffffffffffffffffffffffffff1602179055508060048190555050505087600560026101000a81548173ffffffffffffffffffffffffffffffffffffffff021916908373ffffffffffffffffffffffffffffffffffffffff16021790555087600660006101000a81548173ffffffffffffffffffffffffffffffffffffffff021916908373ffffffffffffffffffffffffffffffffffffffff16021790555060008090505b875181101562000354576001600d60008a848151811015156200026d57fe5b9060200190602002015173ffffffffffffffffffffffffffffffffffffffff1673ffffffffffffffffffffffffffffffffffffffff16815260200190815260200160002060006101000a81548160ff02191690831515021790555060118882815181101515620002d957fe5b9060200190602002015190806001815401808255809150509060018203906000526020600020016000909192909190916101000a81548173ffffffffffffffffffffffffffffffffffffffff021916908373ffffffffffffffffffffffffffffffffffffffff1602179055505080806001019150506200024e565b508560078190555084600881905550836009819055506000600560006101000a81548160ff0219169083151502179055506000600560016101000a81548160ff0219169083151502179055505050505050505050613a4180620003b86000396000f3fe608060405260043610610180576000357c0100000000000000000000000000000000000000000000000000000000900463ffffffff16806308a0b157146101855780630dd410cb146101ea5780630f36a16d146102535780631540814a146102bc57806316d43a971461042d578063239aad0d146104585780632a16e6d8146104d3578063365b98b2146104fe5780635623732e14610579578063570ca735146105a45780635fdffef8146105fb5780637944f9e21461076c5780637b8d56e3146107cd5780639ed278091461082a578063adc9772e14610859578063b337f8cc146108cc578063c040ebec14610931578063ce809f791461095c578063d1ccf66e146109bb578063d33b8d2314610a20578063d3fc15e714610a77578063d5934b7614610b0d578063d77f460f14610b3c578063dc5cb25814610b67578063e6dde2f214610b92578063ed72eb2414610be9578063f2888dbb14610c14578063f51896f814610c7d578063fc89de5c14610cac578063ff098d2514610d38575b600080fd5b34801561019157600080fd5b506101d4600480360360208110156101a857600080fd5b81019080803573ffffffffffffffffffffffffffffffffffffffff169060200190929190505050610d63565b6040518082815260200191505060405180910390f35b3480156101f657600080fd5b506102396004803603602081101561020d57600080fd5b81019080803573ffffffffffffffffffffffffffffffffffffffff169060200190929190505050610d7b565b604051808215151515815260200191505060405180910390f35b34801561025f57600080fd5b506102a26004803603602081101561027657600080fd5b81019080803573ffffffffffffffffffffffffffffffffffffffff169060200190929190505050610d9b565b604051808215151515815260200191505060405180910390f35b3480156102c857600080fd5b50610413600480360360408110156102df57600080fd5b81019080803590602001906401000000008111156102fc57600080fd5b82018360208201111561030e57600080fd5b8035906020019184602083028401116401000000008311171561033057600080fd5b919080806020026020016040519081016040528093929190818152602001838360200280828437600081840152601f19601f8201169050808301925050505050505091929192908035906020019064010000000081111561039057600080fd5b8201836020820111156103a257600080fd5b803590602001918460208302840111640100000000831117156103c457600080fd5b919080806020026020016040519081016040528093929190818152602001838360200280828437600081840152601f19601f8201169050808301925050505050505091929192905050506110d1565b604051808215151515815260200191505060405180910390f35b34801561043957600080fd5b506104426115b8565b6040518082815260200191505060405180910390f35b34801561046457600080fd5b506104916004803603602081101561047b57600080fd5b81019080803590602001909291905050506115be565b604051808273ffffffffffffffffffffffffffffffffffffffff1673ffffffffffffffffffffffffffffffffffffffff16815260200191505060405180910390f35b3480156104df57600080fd5b506104e86115fc565b6040518082815260200191505060405180910390f35b34801561050a57600080fd5b506105376004803603602081101561052157600080fd5b8101908080359060200190929190505050611602565b604051808273ffffffffffffffffffffffffffffffffffffffff1673ffffffffffffffffffffffffffffffffffffffff16815260200191505060405180910390f35b34801561058557600080fd5b5061058e611640565b6040518082815260200191505060405180910390f35b3480156105b057600080fd5b506105b9611646565b604051808273ffffffffffffffffffffffffffffffffffffffff1673ffffffffffffffffffffffffffffffffffffffff16815260200191505060405180910390f35b34801561060757600080fd5b506107526004803603604081101561061e57600080fd5b810190808035906020019064010000000081111561063b57600080fd5b82018360208201111561064d57600080fd5b8035906020019184602083028401116401000000008311171561066f57600080fd5b919080806020026020016040519081016040528093929190818152602001838360200280828437600081840152601f19601f820116905080830192505050505050509192919290803590602001906401000000008111156106cf57600080fd5b8201836020820111156106e157600080fd5b8035906020019184602083028401116401000000008311171561070357600080fd5b919080806020026020016040519081016040528093929190818152602001838360200280828437600081840152601f19601f82011690508083019250505050505050919291929050505061166c565b604051808215151515815260200191505060405180910390f35b34801561077857600080fd5b506107b36004803603604081101561078f57600080fd5b810190808035151590602001909291908035151590602001909291905050506119bc565b604051808215151515815260200191505060405180910390f35b3480156107d957600080fd5b50610810600480360360408110156107f057600080fd5b810190808035906020019092919080359060200190929190505050611a5a565b604051808215151515815260200191505060405180910390f35b34801561083657600080fd5b5061083f611b70565b604051808215151515815260200191505060405180910390f35b34801561086557600080fd5b506108b26004803603604081101561087c57600080fd5b81019080803573ffffffffffffffffffffffffffffffffffffffff16906020019092919080359060200190929190505050611b83565b604051808215151515815260200191505060405180910390f35b3480156108d857600080fd5b5061091b600480360360208110156108ef57600080fd5b81019080803573ffffffffffffffffffffffffffffffffffffffff1690602001909291905050506123fc565b6040518082815260200191505060405180910390f35b34801561093d57600080fd5b50610946612414565b6040518082815260200191505060405180910390f35b34801561096857600080fd5b506109a16004803603604081101561097f57600080fd5b8101908080351515906020019092919080359060200190929190505050612421565b604051808215151515815260200191505060405180910390f35b3480156109c757600080fd5b50610a0a600480360360208110156109de57600080fd5b81019080803573ffffffffffffffffffffffffffffffffffffffff1690602001909291905050506129a7565b6040518082815260200191505060405180910390f35b348015610a2c57600080fd5b50610a356129bf565b604051808273ffffffffffffffffffffffffffffffffffffffff1673ffffffffffffffffffffffffffffffffffffffff16815260200191505060405180910390f35b348015610a8357600080fd5b50610af060048036036060811015610a9a57600080fd5b81019080803573ffffffffffffffffffffffffffffffffffffffff169060200190929190803573ffffffffffffffffffffffffffffffffffffffff169060200190929190803590602001909291905050506129e5565b604051808381526020018281526020019250505060405180910390f35b348015610b1957600080fd5b50610b22612a23565b604051808215151515815260200191505060405180910390f35b348015610b4857600080fd5b50610b51612c53565b6040518082815260200191505060405180910390f35b348015610b7357600080fd5b50610b7c612c59565b6040518082815260200191505060405180910390f35b348015610b9e57600080fd5b50610ba7612c5f565b604051808273ffffffffffffffffffffffffffffffffffffffff1673ffffffffffffffffffffffffffffffffffffffff16815260200191505060405180910390f35b348015610bf557600080fd5b50610bfe612c85565b6040518082815260200191505060405180910390f35b348015610c2057600080fd5b50610c6360048036036020811015610c3757600080fd5b81019080803573ffffffffffffffffffffffffffffffffffffffff169060200190929190505050612c92565b604051808215151515815260200191505060405180910390f35b348015610c8957600080fd5b50610c92613537565b604051808215151515815260200191505060405180910390f35b348015610cb857600080fd5b50610d1b60048036036040811015610ccf57600080fd5b81019080803573ffffffffffffffffffffffffffffffffffffffff169060200190929190803573ffffffffffffffffffffffffffffffffffffffff16906020019092919050505061354a565b604051808381526020018281526020019250505060405180910390f35b348015610d4457600080fd5b50610d4d61357b565b6040518082815260200191505060405180910390f35b60106020528060005260406000206000915090505481565b600d6020528060005260406000206000915054906101000a900460ff1681565b600080610da6613581565b9050600454600354820310151515610dbd57600080fd5b6000809054906101000a900473ffffffffffffffffffffffffffffffffffffffff1673ffffffffffffffffffffffffffffffffffffffff1663b0a93414846040518263ffffffff167c0100000000000000000000000000000000000000000000000000000000028152600401808273ffffffffffffffffffffffffffffffffffffffff1673ffffffffffffffffffffffffffffffffffffffff168152602001915050602060405180830381600087803b158015610e7957600080fd5b505af1158015610e8d573d6000803e3d6000fd5b505050506040513d6020811015610ea357600080fd5b81019080805190602001909291905050501515610ebf57600080fd5b82600160006101000a81548173ffffffffffffffffffffffffffffffffffffffff021916908373ffffffffffffffffffffffffffffffffffffffff160217905550600160009054906101000a900473ffffffffffffffffffffffffffffffffffffffff166000806101000a81548173ffffffffffffffffffffffffffffffffffffffff021916908373ffffffffffffffffffffffffffffffffffffffff160217905550600073ffffffffffffffffffffffffffffffffffffffff166000809054906101000a900473ffffffffffffffffffffffffffffffffffffffff1673ffffffffffffffffffffffffffffffffffffffff1663387439046040518163ffffffff167c0100000000000000000000000000000000000000000000000000000000028152600401602060405180830381600087803b158015610fff57600080fd5b505af1158015611013573d6000803e3d6000fd5b505050506040513d602081101561102957600080fd5b810190808051906020019092919050505073ffffffffffffffffffffffffffffffffffffffff161415151561105d57600080fd5b7fce93baa0b608a7d420822b6b90cfcccb70574363ba4fd26ef5ac17dd465016c483604051808273ffffffffffffffffffffffffffffffffffffffff1673ffffffffffffffffffffffffffffffffffffffff16815260200191505060405180910390a1600191508060038190555050919050565b6000600260009054906101000a900473ffffffffffffffffffffffffffffffffffffffff168073ffffffffffffffffffffffffffffffffffffffff163373ffffffffffffffffffffffffffffffffffffffff1614151561113057600080fd5b82518451148015611142575060008451115b15156111b6576040517f08c379a00000000000000000000000000000000000000000000000000000000081526004018080602001828103825260168152602001807f696e70757420706172616d65746572732077726f6e670000000000000000000081525060200191505060405180910390fd5b600560009054906101000a900460ff161580156111e05750600560019054906101000a900460ff16155b1515611254576040517f08c379a00000000000000000000000000000000000000000000000000000000081526004018080602001828103825260158152602001807f7374616b696e67206973206e6f742066726f7a656e000000000000000000000081525060200191505060405180910390fd5b60008090505b8451811015611415576112e3848281518110151561127457fe5b9060200190602002015160126000888581518110151561129057fe5b9060200190602002015173ffffffffffffffffffffffffffffffffffffffff1673ffffffffffffffffffffffffffffffffffffffff1681526020019081526020016000205461358990919063ffffffff16565b6012600087848151811015156112f557fe5b9060200190602002015173ffffffffffffffffffffffffffffffffffffffff1673ffffffffffffffffffffffffffffffffffffffff16815260200190815260200160002081905550611369848281518110151561134e57fe5b90602001906020020151600a5461358990919063ffffffff16565b600a819055507fd185e4940a36e5f27549de4c89ab5d6d8ba2bbf01c48b4df813c0e73b123cbab858281518110151561139e57fe5b9060200190602002015185838151811015156113b657fe5b90602001906020020151604051808373ffffffffffffffffffffffffffffffffffffffff1673ffffffffffffffffffffffffffffffffffffffff1681526020018281526020019250505060405180910390a1808060010191505061125a565b50600a54600660009054906101000a900473ffffffffffffffffffffffffffffffffffffffff1673ffffffffffffffffffffffffffffffffffffffff166370a08231306040518263ffffffff167c0100000000000000000000000000000000000000000000000000000000028152600401808273ffffffffffffffffffffffffffffffffffffffff1673ffffffffffffffffffffffffffffffffffffffff168152602001915050602060405180830381600087803b1580156114d657600080fd5b505af11580156114ea573d6000803e3d6000fd5b505050506040513d602081101561150057600080fd5b8101908080519060200190929190505050101515156115ad576040517f08c379a00000000000000000000000000000000000000000000000000000000081526004018080602001828103825260218152602001807f6e6f7420656e6f7567682062616c616e636520746f206769766520617761726481526020017f730000000000000000000000000000000000000000000000000000000000000081525060400191505060405180910390fd5b600191505092915050565b60035481565b6011818154811015156115cd57fe5b906000526020600020016000915054906101000a900473ffffffffffffffffffffffffffffffffffffffff1681565b60095481565b600b8181548110151561161157fe5b906000526020600020016000915054906101000a900473ffffffffffffffffffffffffffffffffffffffff1681565b60045481565b600260009054906101000a900473ffffffffffffffffffffffffffffffffffffffff1681565b6000600260009054906101000a900473ffffffffffffffffffffffffffffffffffffffff168073ffffffffffffffffffffffffffffffffffffffff163373ffffffffffffffffffffffffffffffffffffffff161415156116cb57600080fd5b825184511480156116dd575060008451115b1515611751576040517f08c379a00000000000000000000000000000000000000000000000000000000081526004018080602001828103825260168152602001807f696e70757420706172616d65746572732077726f6e670000000000000000000081525060200191505060405180910390fd5b600560009054906101000a900460ff1615801561177b5750600560019054906101000a900460ff16155b15156117ef576040517f08c379a00000000000000000000000000000000000000000000000000000000081526004018080602001828103825260158152602001807f7374616b696e67206973206e6f742066726f7a656e000000000000000000000081525060200191505060405180910390fd5b60008090505b84518110156119b05761187e848281518110151561180f57fe5b9060200190602002015160126000888581518110151561182b57fe5b9060200190602002015173ffffffffffffffffffffffffffffffffffffffff1673ffffffffffffffffffffffffffffffffffffffff168152602001908152602001600020546135a790919063ffffffff16565b60126000878481518110151561189057fe5b9060200190602002015173ffffffffffffffffffffffffffffffffffffffff1673ffffffffffffffffffffffffffffffffffffffff1681526020019081526020016000208190555061190484828151811015156118e957fe5b90602001906020020151600a546135a790919063ffffffff16565b600a819055507f6a10b3116f6b38c50625bff001068c89f54342d735ab5a3df975d9c6868647b5858281518110151561193957fe5b90602001906020020151858381518110151561195157fe5b90602001906020020151604051808373ffffffffffffffffffffffffffffffffffffffff1673ffffffffffffffffffffffffffffffffffffffff1681526020018281526020019250505060405180910390a180806001019150506117f5565b50600191505092915050565b6000600260009054906101000a900473ffffffffffffffffffffffffffffffffffffffff168073ffffffffffffffffffffffffffffffffffffffff163373ffffffffffffffffffffffffffffffffffffffff16141515611a1b57600080fd5b83600560006101000a81548160ff02191690831515021790555082600560016101000a81548160ff021916908315150217905550600191505092915050565b6000600260009054906101000a900473ffffffffffffffffffffffffffffffffffffffff168073ffffffffffffffffffffffffffffffffffffffff163373ffffffffffffffffffffffffffffffffffffffff16141515611ab957600080fd5b6000611ac3613581565b9050600454600354820310151515611ada57600080fd5b600080861415611af557600854905084600881905550611b15565b6001861415611b0f57600954905084600981905550611b14565b600080fd5b5b7fabd08d77cf1eed600c8ba851f4210365f6695aa58b9500aa52a83db7d8b534ba86828760405180848152602001838152602001828152602001935050505060405180910390a1600193505080600381905550505092915050565b600560009054906101000a900460ff1681565b600082600d60008273ffffffffffffffffffffffffffffffffffffffff1673ffffffffffffffffffffffffffffffffffffffff16815260200190815260200160002060009054906101000a900460ff161515611c47576040517f08c379a00000000000000000000000000000000000000000000000000000000081526004018080602001828103825260148152602001807f6e6f742077686974656c697374206f7261636c6500000000000000000000000081525060200191505060405180910390fd5b600560009054906101000a900460ff161515611ccb576040517f08c379a00000000000000000000000000000000000000000000000000000000081526004018080602001828103825260138152602001807f63616e5374616b65206973206e6f74207365740000000000000000000000000081525060200191505060405180910390fd5b60003390506008548410151515611d70576040517f08c379a00000000000000000000000000000000000000000000000000000000081526004018080602001828103825260268152602001807f7374616b696e6720616d74206c657373207468616e206d696e20616d7420726581526020017f717569726564000000000000000000000000000000000000000000000000000081525060400191505060405180910390fd5b600954611dc585601060008973ffffffffffffffffffffffffffffffffffffffff1673ffffffffffffffffffffffffffffffffffffffff1681526020019081526020016000205461358990919063ffffffff16565b11151515611e61576040517f08c379a00000000000000000000000000000000000000000000000000000000081526004018080602001828103825260218152602001807f657863656564696e6720746865206d6178696d756d20616d7420616c6c6f776581526020017f640000000000000000000000000000000000000000000000000000000000000081525060400191505060405180910390fd5b600660009054906101000a900473ffffffffffffffffffffffffffffffffffffffff1673ffffffffffffffffffffffffffffffffffffffff166323b872dd8230876040518463ffffffff167c0100000000000000000000000000000000000000000000000000000000028152600401808473ffffffffffffffffffffffffffffffffffffffff1673ffffffffffffffffffffffffffffffffffffffff1681526020018373ffffffffffffffffffffffffffffffffffffffff1673ffffffffffffffffffffffffffffffffffffffff1681526020018281526020019350505050602060405180830381600087803b158015611f5a57600080fd5b505af1158015611f6e573d6000803e3d6000fd5b505050506040513d6020811015611f8457600080fd5b81019080805190602001909291905050501515612009576040517f08c379a000000000000000000000000000000000000000000000000000000000815260040180806020018281038252601f8152602001807f6e6f7420656e6f75676820616c6c6f77616e6365206f722062616c616e63650081525060200191505060405180910390fd5b6001600e60008373ffffffffffffffffffffffffffffffffffffffff1673ffffffffffffffffffffffffffffffffffffffff16815260200190815260200160002060008773ffffffffffffffffffffffffffffffffffffffff1673ffffffffffffffffffffffffffffffffffffffff168152602001908152602001600020600101600082825401925050819055506000600e60008373ffffffffffffffffffffffffffffffffffffffff1673ffffffffffffffffffffffffffffffffffffffff16815260200190815260200160002060008773ffffffffffffffffffffffffffffffffffffffff1673ffffffffffffffffffffffffffffffffffffffff1681526020019081526020016000206000015414156121ae576001600e60008373ffffffffffffffffffffffffffffffffffffffff1673ffffffffffffffffffffffffffffffffffffffff16815260200190815260200160002060008773ffffffffffffffffffffffffffffffffffffffff1673ffffffffffffffffffffffffffffffffffffffff168152602001908152602001600020600001600082825401925050819055505b60408051908101604052806121c1613581565b815260200185815250600f60008373ffffffffffffffffffffffffffffffffffffffff1673ffffffffffffffffffffffffffffffffffffffff16815260200190815260200160002060008773ffffffffffffffffffffffffffffffffffffffff1673ffffffffffffffffffffffffffffffffffffffff1681526020019081526020016000206000600e60008573ffffffffffffffffffffffffffffffffffffffff1673ffffffffffffffffffffffffffffffffffffffff16815260200190815260200160002060008973ffffffffffffffffffffffffffffffffffffffff1673ffffffffffffffffffffffffffffffffffffffff168152602001908152602001600020600101548152602001908152602001600020600082015181600001556020820151816001015590505061233f84601060008873ffffffffffffffffffffffffffffffffffffffff1673ffffffffffffffffffffffffffffffffffffffff1681526020019081526020016000205461358990919063ffffffff16565b601060008773ffffffffffffffffffffffffffffffffffffffff1673ffffffffffffffffffffffffffffffffffffffff1681526020019081526020016000208190555061238b816135c0565b8473ffffffffffffffffffffffffffffffffffffffff168173ffffffffffffffffffffffffffffffffffffffff167fe44ffc8f4f9e4d91d97c4fa852b7ca7360f5108ec3239384e93f01a33000149f866040518082815260200191505060405180910390a360019250505092915050565b600c6020528060005260406000206000915090505481565b6000600b80549050905090565b6000600560019054906101000a900460ff1615156124a7576040517f08c379a00000000000000000000000000000000000000000000000000000000081526004018080602001828103825260158152602001807f63616e556e7374616b65206973206e6f7420736574000000000000000000000081525060200191505060405180910390fd5b60003390508380156124f857506000601260008373ffffffffffffffffffffffffffffffffffffffff1673ffffffffffffffffffffffffffffffffffffffff16815260200190815260200160002054115b15612718576000601260008373ffffffffffffffffffffffffffffffffffffffff1673ffffffffffffffffffffffffffffffffffffffff1681526020019081526020016000205490506000601260008473ffffffffffffffffffffffffffffffffffffffff1673ffffffffffffffffffffffffffffffffffffffff1681526020019081526020016000208190555061259b81600a546135a790919063ffffffff16565b600a81905550600660009054906101000a900473ffffffffffffffffffffffffffffffffffffffff1673ffffffffffffffffffffffffffffffffffffffff1663a9059cbb83836040518363ffffffff167c0100000000000000000000000000000000000000000000000000000000028152600401808373ffffffffffffffffffffffffffffffffffffffff1673ffffffffffffffffffffffffffffffffffffffff16815260200182815260200192505050602060405180830381600087803b15801561266657600080fd5b505af115801561267a573d6000803e3d6000fd5b505050506040513d602081101561269057600080fd5b8101908080519060200190929190505050507ff70b8494683feeccc4f94533827959ff8cfd78cb0071db9145bcad99ebc6c2ea8282604051808373ffffffffffffffffffffffffffffffffffffffff1673ffffffffffffffffffffffffffffffffffffffff1681526020018281526020019250505060405180910390a16001925050506129a1565b831580156127265750600083115b80156127715750601260008273ffffffffffffffffffffffffffffffffffffffff1673ffffffffffffffffffffffffffffffffffffffff168152602001908152602001600020548311155b1561299c576127c883601260008473ffffffffffffffffffffffffffffffffffffffff1673ffffffffffffffffffffffffffffffffffffffff168152602001908152602001600020546135a790919063ffffffff16565b601260008373ffffffffffffffffffffffffffffffffffffffff1673ffffffffffffffffffffffffffffffffffffffff1681526020019081526020016000208190555061282083600a546135a790919063ffffffff16565b600a81905550600660009054906101000a900473ffffffffffffffffffffffffffffffffffffffff1673ffffffffffffffffffffffffffffffffffffffff1663a9059cbb82856040518363ffffffff167c0100000000000000000000000000000000000000000000000000000000028152600401808373ffffffffffffffffffffffffffffffffffffffff1673ffffffffffffffffffffffffffffffffffffffff16815260200182815260200192505050602060405180830381600087803b1580156128eb57600080fd5b505af11580156128ff573d6000803e3d6000fd5b505050506040513d602081101561291557600080fd5b8101908080519060200190929190505050507ff70b8494683feeccc4f94533827959ff8cfd78cb0071db9145bcad99ebc6c2ea8184604051808373ffffffffffffffffffffffffffffffffffffffff1673ffffffffffffffffffffffffffffffffffffffff1681526020018281526020019250505060405180910390a160019150506129a1565b600080fd5b92915050565b60126020528060005260406000206000915090505481565b600160009054906101000a900473ffffffffffffffffffffffffffffffffffffffff1681565b600f60205282600052604060002060205281600052604060002060205280600052604060002060009250925050508060000154908060010154905082565b600080612a2e613581565b9050600454600354820310151515612a4557600080fd5b60003390506000809054906101000a900473ffffffffffffffffffffffffffffffffffffffff1673ffffffffffffffffffffffffffffffffffffffff1663d04787a78260006040518363ffffffff167c0100000000000000000000000000000000000000000000000000000000028152600401808373ffffffffffffffffffffffffffffffffffffffff1673ffffffffffffffffffffffffffffffffffffffff16815260200182815260200192505050602060405180830381600087803b158015612b0f57600080fd5b505af1158015612b23573d6000803e3d6000fd5b505050506040513d6020811015612b3957600080fd5b8101908080519060200190929190505050600260006101000a81548173ffffffffffffffffffffffffffffffffffffffff021916908373ffffffffffffffffffffffffffffffffffffffff1602179055507ff7fa3b6184cd955c4d8db1b118f541d29ad3cde98ac41ffac1864077b27acc5b81600260009054906101000a900473ffffffffffffffffffffffffffffffffffffffff16604051808373ffffffffffffffffffffffffffffffffffffffff1673ffffffffffffffffffffffffffffffffffffffff1681526020018273ffffffffffffffffffffffffffffffffffffffff1673ffffffffffffffffffffffffffffffffffffffff1681526020019250505060405180910390a16001925050806003819055505090565b60085481565b60075481565b600560029054906101000a900473ffffffffffffffffffffffffffffffffffffffff1681565b6000601180549050905090565b6000600560019054906101000a900460ff161515612d18576040517f08c379a00000000000000000000000000000000000000000000000000000000081526004018080602001828103825260158152602001807f63616e556e7374616b65206973206e6f7420736574000000000000000000000081525060200191505060405180910390fd5b6000339050600e60008273ffffffffffffffffffffffffffffffffffffffff1673ffffffffffffffffffffffffffffffffffffffff16815260200190815260200160002060008473ffffffffffffffffffffffffffffffffffffffff1673ffffffffffffffffffffffffffffffffffffffff16815260200190815260200160002060000154600e60008373ffffffffffffffffffffffffffffffffffffffff1673ffffffffffffffffffffffffffffffffffffffff16815260200190815260200160002060008573ffffffffffffffffffffffffffffffffffffffff1673ffffffffffffffffffffffffffffffffffffffff1681526020019081526020016000206001015410158015612eaa57506000600e60008373ffffffffffffffffffffffffffffffffffffffff1673ffffffffffffffffffffffffffffffffffffffff16815260200190815260200160002060008573ffffffffffffffffffffffffffffffffffffffff1673ffffffffffffffffffffffffffffffffffffffff16815260200190815260200160002060000154115b1515612f1e576040517f08c379a000000000000000000000000000000000000000000000000000000000815260040180806020018281038252600b8152602001807f656d70747920717565756500000000000000000000000000000000000000000081525060200191505060405180910390fd5b612f26613990565b600f60008373ffffffffffffffffffffffffffffffffffffffff1673ffffffffffffffffffffffffffffffffffffffff16815260200190815260200160002060008573ffffffffffffffffffffffffffffffffffffffff1673ffffffffffffffffffffffffffffffffffffffff1681526020019081526020016000206000600e60008573ffffffffffffffffffffffffffffffffffffffff1673ffffffffffffffffffffffffffffffffffffffff16815260200190815260200160002060008773ffffffffffffffffffffffffffffffffffffffff1673ffffffffffffffffffffffffffffffffffffffff1681526020019081526020016000206000015481526020019081526020016000206040805190810160405290816000820154815260200160018201548152505090506000613087600754613079846000015161306b613581565b6135a790919063ffffffff16565b6135a790919063ffffffff16565b1115156130fc576040517f08c379a00000000000000000000000000000000000000000000000000000000081526004018080602001828103825260198152602001807f7374616b696e6720706572696f64206e6f74207061737365640000000000000081525060200191505060405180910390fd5b600f60008373ffffffffffffffffffffffffffffffffffffffff1673ffffffffffffffffffffffffffffffffffffffff16815260200190815260200160002060008573ffffffffffffffffffffffffffffffffffffffff1673ffffffffffffffffffffffffffffffffffffffff1681526020019081526020016000206000600e60008573ffffffffffffffffffffffffffffffffffffffff1673ffffffffffffffffffffffffffffffffffffffff16815260200190815260200160002060008773ffffffffffffffffffffffffffffffffffffffff1673ffffffffffffffffffffffffffffffffffffffff168152602001908152602001600020600001548152602001908152602001600020600080820160009055600182016000905550506001600e60008473ffffffffffffffffffffffffffffffffffffffff1673ffffffffffffffffffffffffffffffffffffffff16815260200190815260200160002060008673ffffffffffffffffffffffffffffffffffffffff1673ffffffffffffffffffffffffffffffffffffffff168152602001908152602001600020600001600082825401925050819055506132ff8160200151601060008773ffffffffffffffffffffffffffffffffffffffff1673ffffffffffffffffffffffffffffffffffffffff168152602001908152602001600020546135a790919063ffffffff16565b601060008673ffffffffffffffffffffffffffffffffffffffff1673ffffffffffffffffffffffffffffffffffffffff168152602001908152602001600020819055508373ffffffffffffffffffffffffffffffffffffffff168273ffffffffffffffffffffffffffffffffffffffff167f390b1276974b9463e5d66ab10df69b6f3d7b930eb066a0e66df327edd2cc811c83602001516040518082815260200191505060405180910390a3600660009054906101000a900473ffffffffffffffffffffffffffffffffffffffff1673ffffffffffffffffffffffffffffffffffffffff1663a9059cbb8383602001516040518363ffffffff167c0100000000000000000000000000000000000000000000000000000000028152600401808373ffffffffffffffffffffffffffffffffffffffff1673ffffffffffffffffffffffffffffffffffffffff16815260200182815260200192505050602060405180830381600087803b15801561347457600080fd5b505af1158015613488573d6000803e3d6000fd5b505050506040513d602081101561349e57600080fd5b81019080805190602001909291905050501515613523576040517f08c379a00000000000000000000000000000000000000000000000000000000081526004018080602001828103825260168152602001807f746f6b656e207472616e73666572206661696c7572650000000000000000000081525060200191505060405180910390fd5b61352c826135c0565b600192505050919050565b600560019054906101000a900460ff1681565b600e602052816000526040600020602052806000526040600020600091509150508060000154908060010154905082565b600a5481565b600042905090565b600080828401905083811015151561359d57fe5b8091505092915050565b60008282111515156135b557fe5b818303905092915050565b600080905060008090505b6011805490508110156136ea576135e06139aa565b600e60008573ffffffffffffffffffffffffffffffffffffffff1673ffffffffffffffffffffffffffffffffffffffff168152602001908152602001600020600060118481548110151561363057fe5b9060005260206000200160009054906101000a900473ffffffffffffffffffffffffffffffffffffffff1673ffffffffffffffffffffffffffffffffffffffff1673ffffffffffffffffffffffffffffffffffffffff16815260200190815260200160002060408051908101604052908160008201548152602001600182015481525050905080600001518160200151101580156136d2575060008160000151115b156136dc57600192505b5080806001019150506135cb565b506000600c60008473ffffffffffffffffffffffffffffffffffffffff1673ffffffffffffffffffffffffffffffffffffffff16815260200190815260200160002054905060008111156138d4578115156138cf576000600b8054905090506000600b6001830381548110151561375d57fe5b9060005260206000200160009054906101000a900473ffffffffffffffffffffffffffffffffffffffff169050818310156138325780600b600185038154811015156137a557fe5b9060005260206000200160006101000a81548173ffffffffffffffffffffffffffffffffffffffff021916908373ffffffffffffffffffffffffffffffffffffffff16021790555082600c60008373ffffffffffffffffffffffffffffffffffffffff1673ffffffffffffffffffffffffffffffffffffffff168152602001908152602001600020819055505b600b6001830381548110151561384457fe5b9060005260206000200160006101000a81549073ffffffffffffffffffffffffffffffffffffffff02191690556000600c60008773ffffffffffffffffffffffffffffffffffffffff1673ffffffffffffffffffffffffffffffffffffffff16815260200190815260200160002081905550600b8054809190600190036138cb91906139c4565b5050505b61398b565b811561398a57600b8390806001815401808255809150509060018203906000526020600020016000909192909190916101000a81548173ffffffffffffffffffffffffffffffffffffffff021916908373ffffffffffffffffffffffffffffffffffffffff16021790555050600b80549050600c60008573ffffffffffffffffffffffffffffffffffffffff1673ffffffffffffffffffffffffffffffffffffffff168152602001908152602001600020819055505b5b505050565b604080519081016040528060008152602001600081525090565b604080519081016040528060008152602001600081525090565b8154818355818111156139eb578183600052602060002091820191016139ea91906139f0565b5b505050565b613a1291905b80821115613a0e5760008160009055506001016139f6565b5090565b9056fea165627a7a723058207192cbc58a5ac788b10a06d2c6771ba6f92bc986e3b6e0675b1f56342572738d0029",
  "source": "pragma solidity ^0.5.0;\nimport { SafeMath } from \"../common/SafeMath.sol\";\nimport { Managed } from \"../common/Managed.sol\";\nimport { IERC20 } from \"../interfaces/IERC20.sol\";\n\n/// @title Stake\n/// @author duo.network\n\ncontract Stake is Managed {\n\tusing SafeMath for uint;\n\n\t/*\n     * Struct\n     */\n\tstruct QueueIdx {\n\t\tuint first;\n\t\tuint last;\n\t}\n\n\tstruct StakeLot {\n\t\tuint timestamp;\n\t\tuint amtInWei;\n\t}\n\n\t/*\n     * State\n     */\n\tbool public canStake;\n\tbool public canUnstake;\n\taddress public duoTokenAddress;\n\tIERC20 duoTokenContract;\n\tuint public lockMinTimeInSecond;\n\tuint public minStakeAmtInWei = 500 * 1e18; // dynamiclly tunable\n\tuint public maxOracleStakeAmtInWei = 200000 * 1e18;  // dynamiclly tunable\n\tuint public totalAwardsToDistributeInWei = 0;\n\taddress[] public users;\n\tmapping (address => uint) public existingUsers;\n\n\tmapping (address => bool) public isWhiteListOracle;\n\tmapping (address => mapping(address => QueueIdx)) public userQueueIdx; // useraddress => oracle => queueIdx\n\tmapping (address => mapping (address => mapping(uint => StakeLot))) public userStakeQueue; // useraddress => oracle => stakeOrder => Stakelot\n\tmapping (address => uint) public totalStakAmtInWei;\n\taddress[] public oracleList;\n\tmapping (address => uint) public awardsInWei;\n\n\t/*\n     * Modifier\n     */\n\tmodifier isOracle(address addr) {\n\t\trequire(isWhiteListOracle[addr], \"not whitelist oracle\");\n\t\t_;\n\t}\n\n\t/*\n     * Events\n     */\n\tevent AddStake(address indexed from, address indexed oracle, uint amtInWei);\n\tevent Unstake(address indexed from, address indexed oracle, uint amtInWei);\n\tevent SetValue(uint index, uint oldValue, uint newValue);\n\tevent AddAward(address staker, uint awardAmtInWei);\n\tevent ReduceAward(address staker, uint awardAmtInWei);\n\tevent ClaimAward(address claimer, uint awardAmtInWei);\n\n\t/*\n     * Constructor\n     */\n\tconstructor(\n\t\taddress duoTokenAddr,\n\t\taddress[] memory oracleAddrList,\n\t\tuint lockTime,\n\t\tuint minStakeAmt,\n\t\tuint maxStakePerOracle,\n\t\taddress roleManagerAddr,\n\t\taddress opt,\n\t\tuint optCoolDown\n\t\t)\n\t\tpublic\n\t\tManaged(roleManagerAddr, opt, optCoolDown)\n\t{\n\t\tduoTokenAddress = duoTokenAddr;\n\t\tduoTokenContract = IERC20(duoTokenAddr);\n\t\tfor(uint i = 0; i<oracleAddrList.length; i++) {\n\t\t\tisWhiteListOracle[oracleAddrList[i]] = true;\n\t\t\toracleList.push(oracleAddrList[i]);\n\t\t}\n\t\tlockMinTimeInSecond = lockTime;\n\t\tminStakeAmtInWei = minStakeAmt;\n\t\tmaxOracleStakeAmtInWei = maxStakePerOracle;\n\t\tcanStake = false;\n\t\tcanUnstake = false;\n\t}\n\n\n\t/*\n     * Public Functions\n     */\n\tfunction stake(address oracleAddr, uint amtInWei) public isOracle(oracleAddr) returns(bool){\n\t\trequire(canStake, \"canStake is not set\");\n\t\taddress sender = msg.sender;\n\t\trequire(amtInWei >= minStakeAmtInWei, \"staking amt less than min amt required\");\n\t\trequire(totalStakAmtInWei[oracleAddr].add(amtInWei) <= maxOracleStakeAmtInWei, \"exceeding the maximum amt allowed\");\n\t\trequire(duoTokenContract.transferFrom(sender, address(this), amtInWei), \"not enough allowance or balance\");\n\t\tuserQueueIdx[sender][oracleAddr].last += 1;\n\t\tif(userQueueIdx[sender][oracleAddr].first == 0)\n\t\t\tuserQueueIdx[sender][oracleAddr].first += 1;\n\t\tuserStakeQueue[sender][oracleAddr][userQueueIdx[sender][oracleAddr].last] = StakeLot(getNowTimestamp(), amtInWei);\n\t\ttotalStakAmtInWei[oracleAddr] = totalStakAmtInWei[oracleAddr].add(amtInWei);\n\t\tcheckUser(sender);\n\t\temit AddStake(sender, oracleAddr, amtInWei);\n\t\treturn true;\n\t}\n\n\tfunction unstake(address oracleAddr) public returns(bool) {\n\t\trequire(canUnstake, \"canUnstake is not set\");\n\t\taddress sender = msg.sender;\n\t\trequire(\n\t\t\tuserQueueIdx[sender][oracleAddr].last >= userQueueIdx[sender][oracleAddr].first && userQueueIdx[sender][oracleAddr].first > 0, \"empty queue\"\n\t\t);  // non-empty queue\n\t\tStakeLot memory stake = userStakeQueue[sender][oracleAddr][userQueueIdx[sender][oracleAddr].first];\n\t\trequire(getNowTimestamp().sub(stake.timestamp).sub(lockMinTimeInSecond) > 0, \"staking period not passed\");\n\t\tdelete userStakeQueue[sender][oracleAddr][userQueueIdx[sender][oracleAddr].first];\n\t\tuserQueueIdx[sender][oracleAddr].first += 1;\n\t\ttotalStakAmtInWei[oracleAddr] = totalStakAmtInWei[oracleAddr].sub(stake.amtInWei);\n\t\temit Unstake(sender, oracleAddr, stake.amtInWei);\n\t\trequire(duoTokenContract.transfer(sender, stake.amtInWei), \"token transfer failure\");\n\t\tcheckUser(sender);\n\t\treturn true;\n\t}\n\n\tfunction batchAddAward(address[] memory addrsList, uint[] memory amtInWeiList) public only(operator) returns(bool){\n\t\trequire(addrsList.length == amtInWeiList.length && addrsList.length > 0, \"input parameters wrong\");\n\t\trequire(!canStake && !canUnstake, \"staking is not frozen\");\n\t\tfor(uint i = 0;i<addrsList.length; i++) {\n\t\t\tawardsInWei[addrsList[i]] = awardsInWei[addrsList[i]].add(amtInWeiList[i]);\n\t\t\ttotalAwardsToDistributeInWei = totalAwardsToDistributeInWei.add(amtInWeiList[i]);\n\t\t\temit AddAward(addrsList[i], amtInWeiList[i]);\n\t\t}\n\t\trequire(duoTokenContract.balanceOf(address(this)) >= totalAwardsToDistributeInWei, \"not enough balance to give awards\");\n\t\treturn true;\n\t}\n\n\tfunction batchReduceAward(address[] memory addrsList, uint[] memory amtInWeiList) public only(operator) returns(bool){\n\t\trequire(addrsList.length == amtInWeiList.length && addrsList.length > 0, \"input parameters wrong\");\n\t\trequire(!canStake && !canUnstake, \"staking is not frozen\");\n\t\tfor(uint i = 0;i<addrsList.length; i++) {\n\t\t\tawardsInWei[addrsList[i]] = awardsInWei[addrsList[i]].sub(amtInWeiList[i]);\n\t\t\ttotalAwardsToDistributeInWei = totalAwardsToDistributeInWei.sub(amtInWeiList[i]);\n\t\t\temit ReduceAward(addrsList[i], amtInWeiList[i]);\n\t\t}\n\t\treturn true;\n\t}\n\n\tfunction claimAward(bool isAll, uint amtInWei) public returns(bool) {\n\t\trequire(canUnstake, \"canUnstake is not set\");\n\t\taddress sender = msg.sender;\n\t\tif(isAll && awardsInWei[sender] > 0) {\n\t\t\tuint awardToClaim = awardsInWei[sender];\n\t\t\tawardsInWei[sender] = 0;\n\t\t\ttotalAwardsToDistributeInWei = totalAwardsToDistributeInWei.sub(awardToClaim);\n\t\t\tduoTokenContract.transfer(sender, awardToClaim);\n\t\t\temit ClaimAward(sender, awardToClaim);\n\t\t\treturn true;\n\t\t} else if (!isAll && amtInWei > 0 && amtInWei <= awardsInWei[sender]){\n\t\t\tawardsInWei[sender] = awardsInWei[sender].sub(amtInWei);\n\t\t\ttotalAwardsToDistributeInWei = totalAwardsToDistributeInWei.sub(amtInWei);\n\t\t\tduoTokenContract.transfer(sender, amtInWei);\n\t\t\temit ClaimAward(sender, amtInWei);\n\t\t\treturn true;\n\t\t} else {\n\t\t\trevert();\n\t\t}\n\t}\n\n\tfunction setStakeFlag(bool stake, bool unstake) public only(operator) returns(bool) {\n\t\tcanStake = stake;\n\t\tcanUnstake = unstake;\n\t\treturn true;\n\t}\n\n\tfunction checkUser(address user) internal {\n\n\t\tbool isUser = false;\n\t\tfor(uint i = 0; i < oracleList.length; i ++){\n\t\t\tQueueIdx memory queueIdx = userQueueIdx[user][oracleList[i]];\n\n\t\t\tif(queueIdx.last >= queueIdx.first && queueIdx.first > 0){\n\t\t\t\tisUser = true;\n\t\t\t}\n\t\t}\n\n\t\tuint userIdx = existingUsers[user];\n\n\t\tif(userIdx > 0){\n\t\t\tif(!isUser) {\n\t\t\t\tuint lastIdx = users.length;\n\t\t\t\taddress lastUser = users[lastIdx - 1];\n\t\t\t\tif (userIdx < lastIdx) {\n\t\t\t\t\tusers[userIdx - 1] = lastUser;\n\t\t\t\t\texistingUsers[lastUser] = userIdx;\n\t\t\t\t}\n\t\t\t\tdelete users[lastIdx - 1];\n\t\t\t\texistingUsers[user] = 0;\n\t\t\t\tusers.length--;\n\t\t\t}\n\t\t} else {\n\t\t\tif(isUser) {\n\t\t\t\tusers.push(user);\n\t\t\t\texistingUsers[user] = users.length;\n\t\t\t}\n\t\t}\n\t}\n\n\tfunction getOracleSize() public view returns(uint size) {\n\t\treturn oracleList.length;\n\t}\n\n\tfunction getUserSize() public view returns (uint) {\n\t\treturn users.length;\n\t}\n\n\tfunction getNowTimestamp() internal view returns (uint) {\n\t\treturn now;\n\t}\n\n\tfunction setValue(\n\t\tuint idx,\n\t\tuint newValue\n\t)\n\t\tpublic\n\t\tonly(operator)\n\t\tinUpdateWindow()\n\treturns (bool success) {\n\t\tuint oldValue;\n\t\tif (idx == 0) {\n\t\t\toldValue = minStakeAmtInWei;\n\t\t\tminStakeAmtInWei = newValue;\n\t\t} else if (idx == 1) {\n\t\t\toldValue = maxOracleStakeAmtInWei;\n\t\t\tmaxOracleStakeAmtInWei = newValue;\n\t\t}  else {\n\t\t\trevert();\n\t\t}\n\n\t\temit SetValue(idx, oldValue, newValue);\n\t\treturn true;\n\t}\n\n}\n",
  "sourcePath": "C:\\dev\\finbook\\duo-contract\\contracts\\POS\\Stake.sol",
  "compiler": {
    "name": "solc",
    "version": "0.5.0+commit.1d4f565a.Emscripten.clang"
  },
  "schemaVersion": "3.0.1",
  "updatedAt": "2019-05-28T02:24:24.402Z",
  "devdoc": {
    "author": "duo.network",
    "methods": {},
    "title": "Stake"
  },
  "userdoc": {
    "methods": {}
  }
}