{
  "contractName": "Stake",
  "abi": [
    {
      "constant": true,
      "inputs": [
        {
          "name": "",
          "type": "address"
        }
      ],
      "name": "totalStakAmtInWei",
      "outputs": [
        {
          "name": "",
          "type": "uint256"
        }
      ],
      "payable": false,
      "stateMutability": "view",
      "type": "function"
    },
    {
      "constant": true,
      "inputs": [
        {
          "name": "",
          "type": "address"
        }
      ],
      "name": "isWhiteListOracle",
      "outputs": [
        {
          "name": "",
          "type": "bool"
        }
      ],
      "payable": false,
      "stateMutability": "view",
      "type": "function"
    },
    {
      "constant": false,
      "inputs": [
        {
          "name": "newManagerAddr",
          "type": "address"
        }
      ],
      "name": "updateRoleManager",
      "outputs": [
        {
          "name": "",
          "type": "bool"
        }
      ],
      "payable": false,
      "stateMutability": "nonpayable",
      "type": "function"
    },
    {
      "constant": true,
      "inputs": [],
      "name": "lastOperationTime",
      "outputs": [
        {
          "name": "",
          "type": "uint256"
        }
      ],
      "payable": false,
      "stateMutability": "view",
      "type": "function"
    },
    {
      "constant": true,
      "inputs": [
        {
          "name": "",
          "type": "uint256"
        }
      ],
      "name": "oracleList",
      "outputs": [
        {
          "name": "",
          "type": "address"
        }
      ],
      "payable": false,
      "stateMutability": "view",
      "type": "function"
    },
    {
      "constant": true,
      "inputs": [],
      "name": "maxOracleStakeAmtInWei",
      "outputs": [
        {
          "name": "",
          "type": "uint256"
        }
      ],
      "payable": false,
      "stateMutability": "view",
      "type": "function"
    },
    {
      "constant": true,
      "inputs": [
        {
          "name": "",
          "type": "uint256"
        }
      ],
      "name": "users",
      "outputs": [
        {
          "name": "",
          "type": "address"
        }
      ],
      "payable": false,
      "stateMutability": "view",
      "type": "function"
    },
    {
      "constant": true,
      "inputs": [],
      "name": "operationCoolDown",
      "outputs": [
        {
          "name": "",
          "type": "uint256"
        }
      ],
      "payable": false,
      "stateMutability": "view",
      "type": "function"
    },
    {
      "constant": true,
      "inputs": [],
      "name": "operator",
      "outputs": [
        {
          "name": "",
          "type": "address"
        }
      ],
      "payable": false,
      "stateMutability": "view",
      "type": "function"
    },
    {
      "constant": true,
      "inputs": [],
      "name": "uploader",
      "outputs": [
        {
          "name": "",
          "type": "address"
        }
      ],
      "payable": false,
      "stateMutability": "view",
      "type": "function"
    },
    {
      "constant": true,
      "inputs": [],
      "name": "canStake",
      "outputs": [
        {
          "name": "",
          "type": "bool"
        }
      ],
      "payable": false,
      "stateMutability": "view",
      "type": "function"
    },
    {
      "constant": true,
      "inputs": [
        {
          "name": "",
          "type": "address"
        }
      ],
      "name": "existingUsers",
      "outputs": [
        {
          "name": "",
          "type": "uint256"
        }
      ],
      "payable": false,
      "stateMutability": "view",
      "type": "function"
    },
    {
      "constant": true,
      "inputs": [
        {
          "name": "",
          "type": "address"
        }
      ],
      "name": "awardsInWei",
      "outputs": [
        {
          "name": "",
          "type": "uint256"
        }
      ],
      "payable": false,
      "stateMutability": "view",
      "type": "function"
    },
    {
      "constant": true,
      "inputs": [],
      "name": "roleManagerAddress",
      "outputs": [
        {
          "name": "",
          "type": "address"
        }
      ],
      "payable": false,
      "stateMutability": "view",
      "type": "function"
    },
    {
      "constant": true,
      "inputs": [
        {
          "name": "",
          "type": "address"
        },
        {
          "name": "",
          "type": "address"
        },
        {
          "name": "",
          "type": "uint256"
        }
      ],
      "name": "userStakeQueue",
      "outputs": [
        {
          "name": "timestamp",
          "type": "uint256"
        },
        {
          "name": "amtInWei",
          "type": "uint256"
        }
      ],
      "payable": false,
      "stateMutability": "view",
      "type": "function"
    },
    {
      "constant": false,
      "inputs": [],
      "name": "updateOperator",
      "outputs": [
        {
          "name": "",
          "type": "bool"
        }
      ],
      "payable": false,
      "stateMutability": "nonpayable",
      "type": "function"
    },
    {
      "constant": true,
      "inputs": [],
      "name": "minStakeAmtInWei",
      "outputs": [
        {
          "name": "",
          "type": "uint256"
        }
      ],
      "payable": false,
      "stateMutability": "view",
      "type": "function"
    },
    {
      "constant": true,
      "inputs": [],
      "name": "lockMinTimeInSecond",
      "outputs": [
        {
          "name": "",
          "type": "uint256"
        }
      ],
      "payable": false,
      "stateMutability": "view",
      "type": "function"
    },
    {
      "constant": true,
      "inputs": [],
      "name": "duoTokenAddress",
      "outputs": [
        {
          "name": "",
          "type": "address"
        }
      ],
      "payable": false,
      "stateMutability": "view",
      "type": "function"
    },
    {
      "constant": true,
      "inputs": [],
      "name": "canUnstake",
      "outputs": [
        {
          "name": "",
          "type": "bool"
        }
      ],
      "payable": false,
      "stateMutability": "view",
      "type": "function"
    },
    {
      "constant": true,
      "inputs": [
        {
          "name": "",
          "type": "address"
        },
        {
          "name": "",
          "type": "address"
        }
      ],
      "name": "userQueueIdx",
      "outputs": [
        {
          "name": "first",
          "type": "uint256"
        },
        {
          "name": "last",
          "type": "uint256"
        }
      ],
      "payable": false,
      "stateMutability": "view",
      "type": "function"
    },
    {
      "constant": true,
      "inputs": [],
      "name": "totalAwardsToDistributeInWei",
      "outputs": [
        {
          "name": "",
          "type": "uint256"
        }
      ],
      "payable": false,
      "stateMutability": "view",
      "type": "function"
    },
    {
      "inputs": [
        {
          "name": "duoTokenAddr",
          "type": "address"
        },
        {
          "name": "oracleAddrList",
          "type": "address[]"
        },
        {
          "name": "lockTime",
          "type": "uint256"
        },
        {
          "name": "minStakeAmt",
          "type": "uint256"
        },
        {
          "name": "maxStakePerOracle",
          "type": "uint256"
        },
        {
          "name": "roleManagerAddr",
          "type": "address"
        },
        {
          "name": "opt",
          "type": "address"
        },
        {
          "name": "upl",
          "type": "address"
        },
        {
          "name": "optCoolDown",
          "type": "uint256"
        }
      ],
      "payable": false,
      "stateMutability": "nonpayable",
      "type": "constructor"
    },
    {
      "anonymous": false,
      "inputs": [
        {
          "indexed": true,
          "name": "from",
          "type": "address"
        },
        {
          "indexed": true,
          "name": "oracle",
          "type": "address"
        },
        {
          "indexed": false,
          "name": "amtInWei",
          "type": "uint256"
        }
      ],
      "name": "AddStake",
      "type": "event"
    },
    {
      "anonymous": false,
      "inputs": [
        {
          "indexed": true,
          "name": "from",
          "type": "address"
        },
        {
          "indexed": true,
          "name": "oracle",
          "type": "address"
        },
        {
          "indexed": false,
          "name": "amtInWei",
          "type": "uint256"
        }
      ],
      "name": "Unstake",
      "type": "event"
    },
    {
      "anonymous": false,
      "inputs": [
        {
          "indexed": false,
          "name": "index",
          "type": "uint256"
        },
        {
          "indexed": false,
          "name": "oldValue",
          "type": "uint256"
        },
        {
          "indexed": false,
          "name": "newValue",
          "type": "uint256"
        }
      ],
      "name": "SetValue",
      "type": "event"
    },
    {
      "anonymous": false,
      "inputs": [
        {
          "indexed": false,
          "name": "staker",
          "type": "address"
        },
        {
          "indexed": false,
          "name": "awardAmtInWei",
          "type": "uint256"
        }
      ],
      "name": "AddAward",
      "type": "event"
    },
    {
      "anonymous": false,
      "inputs": [
        {
          "indexed": false,
          "name": "staker",
          "type": "address"
        },
        {
          "indexed": false,
          "name": "awardAmtInWei",
          "type": "uint256"
        }
      ],
      "name": "ReduceAward",
      "type": "event"
    },
    {
      "anonymous": false,
      "inputs": [
        {
          "indexed": false,
          "name": "claimer",
          "type": "address"
        },
        {
          "indexed": false,
          "name": "awardAmtInWei",
          "type": "uint256"
        }
      ],
      "name": "ClaimAward",
      "type": "event"
    },
    {
      "anonymous": false,
      "inputs": [
        {
          "indexed": false,
          "name": "updater",
          "type": "address"
        },
        {
          "indexed": false,
          "name": "newUploader",
          "type": "address"
        }
      ],
      "name": "UpdateUploader",
      "type": "event"
    },
    {
      "anonymous": false,
      "inputs": [
        {
          "indexed": false,
          "name": "newManagerAddress",
          "type": "address"
        }
      ],
      "name": "UpdateRoleManager",
      "type": "event"
    },
    {
      "anonymous": false,
      "inputs": [
        {
          "indexed": false,
          "name": "updater",
          "type": "address"
        },
        {
          "indexed": false,
          "name": "newOperator",
          "type": "address"
        }
      ],
      "name": "UpdateOperator",
      "type": "event"
    },
    {
      "constant": false,
      "inputs": [
        {
          "name": "oracleAddr",
          "type": "address"
        },
        {
          "name": "amtInWei",
          "type": "uint256"
        }
      ],
      "name": "stake",
      "outputs": [
        {
          "name": "",
          "type": "bool"
        }
      ],
      "payable": false,
      "stateMutability": "nonpayable",
      "type": "function"
    },
    {
      "constant": false,
      "inputs": [
        {
          "name": "oracleAddr",
          "type": "address"
        }
      ],
      "name": "unstake",
      "outputs": [
        {
          "name": "",
          "type": "bool"
        }
      ],
      "payable": false,
      "stateMutability": "nonpayable",
      "type": "function"
    },
    {
      "constant": false,
      "inputs": [
        {
          "name": "addrsList",
          "type": "address[]"
        },
        {
          "name": "amtInWeiList",
          "type": "uint256[]"
        }
      ],
      "name": "batchAddAward",
      "outputs": [
        {
          "name": "",
          "type": "bool"
        }
      ],
      "payable": false,
      "stateMutability": "nonpayable",
      "type": "function"
    },
    {
      "constant": false,
      "inputs": [
        {
          "name": "addrsList",
          "type": "address[]"
        },
        {
          "name": "amtInWeiList",
          "type": "uint256[]"
        }
      ],
      "name": "batchReduceAward",
      "outputs": [
        {
          "name": "",
          "type": "bool"
        }
      ],
      "payable": false,
      "stateMutability": "nonpayable",
      "type": "function"
    },
    {
      "constant": false,
      "inputs": [
        {
          "name": "isAll",
          "type": "bool"
        },
        {
          "name": "amtInWei",
          "type": "uint256"
        }
      ],
      "name": "claimAward",
      "outputs": [
        {
          "name": "",
          "type": "bool"
        }
      ],
      "payable": false,
      "stateMutability": "nonpayable",
      "type": "function"
    },
    {
      "constant": false,
      "inputs": [
        {
          "name": "stake",
          "type": "bool"
        },
        {
          "name": "unstake",
          "type": "bool"
        }
      ],
      "name": "setStakeFlag",
      "outputs": [
        {
          "name": "",
          "type": "bool"
        }
      ],
      "payable": false,
      "stateMutability": "nonpayable",
      "type": "function"
    },
    {
      "constant": true,
      "inputs": [],
      "name": "getOracleSize",
      "outputs": [
        {
          "name": "size",
          "type": "uint256"
        }
      ],
      "payable": false,
      "stateMutability": "view",
      "type": "function"
    },
    {
      "constant": true,
      "inputs": [],
      "name": "getUserSize",
      "outputs": [
        {
          "name": "",
          "type": "uint256"
        }
      ],
      "payable": false,
      "stateMutability": "view",
      "type": "function"
    },
    {
      "constant": false,
      "inputs": [],
      "name": "updateUploader",
      "outputs": [
        {
          "name": "",
          "type": "bool"
        }
      ],
      "payable": false,
      "stateMutability": "nonpayable",
      "type": "function"
    },
    {
      "constant": false,
      "inputs": [
        {
          "name": "idx",
          "type": "uint256"
        },
        {
          "name": "newValue",
          "type": "uint256"
        }
      ],
      "name": "setValue",
      "outputs": [
        {
          "name": "success",
          "type": "bool"
        }
      ],
      "payable": false,
      "stateMutability": "nonpayable",
      "type": "function"
    }
  ],
  "bytecode": "0x6080604052681b1ae4d6e2ef500000600955692a5a058fc295ed000000600a556000600b553480156200003157600080fd5b50604051620041203803806200412083398101806040526101208110156200005857600080fd5b810190808051906020019092919080516401000000008111156200007b57600080fd5b828101905060208101848111156200009257600080fd5b8151856020820283011164010000000082111715620000b057600080fd5b50509291906020018051906020019092919080519060200190929190805190602001909291908051906020019092919080519060200190929190805190602001909291908051906020019092919050505083838282600160006101000a81548173ffffffffffffffffffffffffffffffffffffffff021916908373ffffffffffffffffffffffffffffffffffffffff160217905550826000806101000a81548173ffffffffffffffffffffffffffffffffffffffff021916908373ffffffffffffffffffffffffffffffffffffffff16021790555081600260006101000a81548173ffffffffffffffffffffffffffffffffffffffff021916908373ffffffffffffffffffffffffffffffffffffffff1602179055508060048190555050505081600660006101000a81548173ffffffffffffffffffffffffffffffffffffffff021916908373ffffffffffffffffffffffffffffffffffffffff16021790555088600560026101000a81548173ffffffffffffffffffffffffffffffffffffffff021916908373ffffffffffffffffffffffffffffffffffffffff16021790555088600760006101000a81548173ffffffffffffffffffffffffffffffffffffffff021916908373ffffffffffffffffffffffffffffffffffffffff16021790555060008090505b88518110156200039f576001600e60008b84815181101515620002b857fe5b9060200190602002015173ffffffffffffffffffffffffffffffffffffffff1673ffffffffffffffffffffffffffffffffffffffff16815260200190815260200160002060006101000a81548160ff021916908315150217905550601289828151811015156200032457fe5b9060200190602002015190806001815401808255809150509060018203906000526020600020016000909192909190916101000a81548173ffffffffffffffffffffffffffffffffffffffff021916908373ffffffffffffffffffffffffffffffffffffffff16021790555050808060010191505062000299565b50866008819055508560098190555084600a819055506000600560006101000a81548160ff0219169083151502179055506000600560016101000a81548160ff021916908315150217905550505050505050505050613d1c80620004046000396000f3fe608060405260043610610196576000357c0100000000000000000000000000000000000000000000000000000000900463ffffffff16806308a0b1571461019b5780630dd410cb146102005780630f36a16d146102695780631540814a146102d257806316d43a9714610443578063239aad0d1461046e5780632a16e6d8146104e9578063365b98b2146105145780635623732e1461058f578063570ca735146105ba5780635fdffef81461061157806365fe2a0b146107825780637944f9e2146107d95780637b8d56e31461083a5780639ed2780914610897578063adc9772e146108c6578063b337f8cc14610939578063c040ebec1461099e578063ce809f79146109c9578063d1ccf66e14610a28578063d33b8d2314610a8d578063d3fc15e714610ae4578063d5934b7614610b7a578063d77f460f14610ba9578063dc5cb25814610bd4578063e6dde2f214610bff578063ed72eb2414610c56578063f2888dbb14610c81578063f51896f814610cea578063f72aa90d14610d19578063fc89de5c14610d48578063ff098d2514610dd4575b600080fd5b3480156101a757600080fd5b506101ea600480360360208110156101be57600080fd5b81019080803573ffffffffffffffffffffffffffffffffffffffff169060200190929190505050610dff565b6040518082815260200191505060405180910390f35b34801561020c57600080fd5b5061024f6004803603602081101561022357600080fd5b81019080803573ffffffffffffffffffffffffffffffffffffffff169060200190929190505050610e17565b604051808215151515815260200191505060405180910390f35b34801561027557600080fd5b506102b86004803603602081101561028c57600080fd5b81019080803573ffffffffffffffffffffffffffffffffffffffff169060200190929190505050610e37565b604051808215151515815260200191505060405180910390f35b3480156102de57600080fd5b50610429600480360360408110156102f557600080fd5b810190808035906020019064010000000081111561031257600080fd5b82018360208201111561032457600080fd5b8035906020019184602083028401116401000000008311171561034657600080fd5b919080806020026020016040519081016040528093929190818152602001838360200280828437600081840152601f19601f820116905080830192505050505050509192919290803590602001906401000000008111156103a657600080fd5b8201836020820111156103b857600080fd5b803590602001918460208302840111640100000000831117156103da57600080fd5b919080806020026020016040519081016040528093929190818152602001838360200280828437600081840152601f19601f82011690508083019250505050505050919291929050505061116d565b604051808215151515815260200191505060405180910390f35b34801561044f57600080fd5b50610458611654565b6040518082815260200191505060405180910390f35b34801561047a57600080fd5b506104a76004803603602081101561049157600080fd5b810190808035906020019092919050505061165a565b604051808273ffffffffffffffffffffffffffffffffffffffff1673ffffffffffffffffffffffffffffffffffffffff16815260200191505060405180910390f35b3480156104f557600080fd5b506104fe611698565b6040518082815260200191505060405180910390f35b34801561052057600080fd5b5061054d6004803603602081101561053757600080fd5b810190808035906020019092919050505061169e565b604051808273ffffffffffffffffffffffffffffffffffffffff1673ffffffffffffffffffffffffffffffffffffffff16815260200191505060405180910390f35b34801561059b57600080fd5b506105a46116dc565b6040518082815260200191505060405180910390f35b3480156105c657600080fd5b506105cf6116e2565b604051808273ffffffffffffffffffffffffffffffffffffffff1673ffffffffffffffffffffffffffffffffffffffff16815260200191505060405180910390f35b34801561061d57600080fd5b506107686004803603604081101561063457600080fd5b810190808035906020019064010000000081111561065157600080fd5b82018360208201111561066357600080fd5b8035906020019184602083028401116401000000008311171561068557600080fd5b919080806020026020016040519081016040528093929190818152602001838360200280828437600081840152601f19601f820116905080830192505050505050509192919290803590602001906401000000008111156106e557600080fd5b8201836020820111156106f757600080fd5b8035906020019184602083028401116401000000008311171561071957600080fd5b919080806020026020016040519081016040528093929190818152602001838360200280828437600081840152601f19601f820116905080830192505050505050509192919290505050611708565b604051808215151515815260200191505060405180910390f35b34801561078e57600080fd5b50610797611a58565b604051808273ffffffffffffffffffffffffffffffffffffffff1673ffffffffffffffffffffffffffffffffffffffff16815260200191505060405180910390f35b3480156107e557600080fd5b50610820600480360360408110156107fc57600080fd5b81019080803515159060200190929190803515159060200190929190505050611a7e565b604051808215151515815260200191505060405180910390f35b34801561084657600080fd5b5061087d6004803603604081101561085d57600080fd5b810190808035906020019092919080359060200190929190505050611b1c565b604051808215151515815260200191505060405180910390f35b3480156108a357600080fd5b506108ac611c32565b604051808215151515815260200191505060405180910390f35b3480156108d257600080fd5b5061091f600480360360408110156108e957600080fd5b81019080803573ffffffffffffffffffffffffffffffffffffffff16906020019092919080359060200190929190505050611c45565b604051808215151515815260200191505060405180910390f35b34801561094557600080fd5b506109886004803603602081101561095c57600080fd5b81019080803573ffffffffffffffffffffffffffffffffffffffff1690602001909291905050506124be565b6040518082815260200191505060405180910390f35b3480156109aa57600080fd5b506109b36124d6565b6040518082815260200191505060405180910390f35b3480156109d557600080fd5b50610a0e600480360360408110156109ec57600080fd5b81019080803515159060200190929190803590602001909291905050506124e3565b604051808215151515815260200191505060405180910390f35b348015610a3457600080fd5b50610a7760048036036020811015610a4b57600080fd5b81019080803573ffffffffffffffffffffffffffffffffffffffff169060200190929190505050612a69565b6040518082815260200191505060405180910390f35b348015610a9957600080fd5b50610aa2612a81565b604051808273ffffffffffffffffffffffffffffffffffffffff1673ffffffffffffffffffffffffffffffffffffffff16815260200191505060405180910390f35b348015610af057600080fd5b50610b5d60048036036060811015610b0757600080fd5b81019080803573ffffffffffffffffffffffffffffffffffffffff169060200190929190803573ffffffffffffffffffffffffffffffffffffffff16906020019092919080359060200190929190505050612aa7565b604051808381526020018281526020019250505060405180910390f35b348015610b8657600080fd5b50610b8f612ae5565b604051808215151515815260200191505060405180910390f35b348015610bb557600080fd5b50610bbe612d15565b6040518082815260200191505060405180910390f35b348015610be057600080fd5b50610be9612d1b565b6040518082815260200191505060405180910390f35b348015610c0b57600080fd5b50610c14612d21565b604051808273ffffffffffffffffffffffffffffffffffffffff1673ffffffffffffffffffffffffffffffffffffffff16815260200191505060405180910390f35b348015610c6257600080fd5b50610c6b612d47565b6040518082815260200191505060405180910390f35b348015610c8d57600080fd5b50610cd060048036036020811015610ca457600080fd5b81019080803573ffffffffffffffffffffffffffffffffffffffff169060200190929190505050612d54565b604051808215151515815260200191505060405180910390f35b348015610cf657600080fd5b50610cff6135f9565b604051808215151515815260200191505060405180910390f35b348015610d2557600080fd5b50610d2e61360c565b604051808215151515815260200191505060405180910390f35b348015610d5457600080fd5b50610db760048036036040811015610d6b57600080fd5b81019080803573ffffffffffffffffffffffffffffffffffffffff169060200190929190803573ffffffffffffffffffffffffffffffffffffffff169060200190929190505050613820565b604051808381526020018281526020019250505060405180910390f35b348015610de057600080fd5b50610de9613851565b6040518082815260200191505060405180910390f35b60116020528060005260406000206000915090505481565b600e6020528060005260406000206000915054906101000a900460ff1681565b600080610e42613857565b9050600454600354820310151515610e5957600080fd5b6000809054906101000a900473ffffffffffffffffffffffffffffffffffffffff1673ffffffffffffffffffffffffffffffffffffffff1663b0a93414846040518263ffffffff167c0100000000000000000000000000000000000000000000000000000000028152600401808273ffffffffffffffffffffffffffffffffffffffff1673ffffffffffffffffffffffffffffffffffffffff168152602001915050602060405180830381600087803b158015610f1557600080fd5b505af1158015610f29573d6000803e3d6000fd5b505050506040513d6020811015610f3f57600080fd5b81019080805190602001909291905050501515610f5b57600080fd5b82600160006101000a81548173ffffffffffffffffffffffffffffffffffffffff021916908373ffffffffffffffffffffffffffffffffffffffff160217905550600160009054906101000a900473ffffffffffffffffffffffffffffffffffffffff166000806101000a81548173ffffffffffffffffffffffffffffffffffffffff021916908373ffffffffffffffffffffffffffffffffffffffff160217905550600073ffffffffffffffffffffffffffffffffffffffff166000809054906101000a900473ffffffffffffffffffffffffffffffffffffffff1673ffffffffffffffffffffffffffffffffffffffff1663387439046040518163ffffffff167c0100000000000000000000000000000000000000000000000000000000028152600401602060405180830381600087803b15801561109b57600080fd5b505af11580156110af573d6000803e3d6000fd5b505050506040513d60208110156110c557600080fd5b810190808051906020019092919050505073ffffffffffffffffffffffffffffffffffffffff16141515156110f957600080fd5b7fce93baa0b608a7d420822b6b90cfcccb70574363ba4fd26ef5ac17dd465016c483604051808273ffffffffffffffffffffffffffffffffffffffff1673ffffffffffffffffffffffffffffffffffffffff16815260200191505060405180910390a1600191508060038190555050919050565b6000600660009054906101000a900473ffffffffffffffffffffffffffffffffffffffff168073ffffffffffffffffffffffffffffffffffffffff163373ffffffffffffffffffffffffffffffffffffffff161415156111cc57600080fd5b825184511480156111de575060008451115b1515611252576040517f08c379a00000000000000000000000000000000000000000000000000000000081526004018080602001828103825260168152602001807f696e70757420706172616d65746572732077726f6e670000000000000000000081525060200191505060405180910390fd5b600560009054906101000a900460ff1615801561127c5750600560019054906101000a900460ff16155b15156112f0576040517f08c379a00000000000000000000000000000000000000000000000000000000081526004018080602001828103825260158152602001807f7374616b696e67206973206e6f742066726f7a656e000000000000000000000081525060200191505060405180910390fd5b60008090505b84518110156114b15761137f848281518110151561131057fe5b9060200190602002015160136000888581518110151561132c57fe5b9060200190602002015173ffffffffffffffffffffffffffffffffffffffff1673ffffffffffffffffffffffffffffffffffffffff1681526020019081526020016000205461385f90919063ffffffff16565b60136000878481518110151561139157fe5b9060200190602002015173ffffffffffffffffffffffffffffffffffffffff1673ffffffffffffffffffffffffffffffffffffffff1681526020019081526020016000208190555061140584828151811015156113ea57fe5b90602001906020020151600b5461385f90919063ffffffff16565b600b819055507fd185e4940a36e5f27549de4c89ab5d6d8ba2bbf01c48b4df813c0e73b123cbab858281518110151561143a57fe5b90602001906020020151858381518110151561145257fe5b90602001906020020151604051808373ffffffffffffffffffffffffffffffffffffffff1673ffffffffffffffffffffffffffffffffffffffff1681526020018281526020019250505060405180910390a180806001019150506112f6565b50600b54600760009054906101000a900473ffffffffffffffffffffffffffffffffffffffff1673ffffffffffffffffffffffffffffffffffffffff166370a08231306040518263ffffffff167c0100000000000000000000000000000000000000000000000000000000028152600401808273ffffffffffffffffffffffffffffffffffffffff1673ffffffffffffffffffffffffffffffffffffffff168152602001915050602060405180830381600087803b15801561157257600080fd5b505af1158015611586573d6000803e3d6000fd5b505050506040513d602081101561159c57600080fd5b810190808051906020019092919050505010151515611649576040517f08c379a00000000000000000000000000000000000000000000000000000000081526004018080602001828103825260218152602001807f6e6f7420656e6f7567682062616c616e636520746f206769766520617761726481526020017f730000000000000000000000000000000000000000000000000000000000000081525060400191505060405180910390fd5b600191505092915050565b60035481565b60128181548110151561166957fe5b906000526020600020016000915054906101000a900473ffffffffffffffffffffffffffffffffffffffff1681565b600a5481565b600c818154811015156116ad57fe5b906000526020600020016000915054906101000a900473ffffffffffffffffffffffffffffffffffffffff1681565b60045481565b600260009054906101000a900473ffffffffffffffffffffffffffffffffffffffff1681565b6000600660009054906101000a900473ffffffffffffffffffffffffffffffffffffffff168073ffffffffffffffffffffffffffffffffffffffff163373ffffffffffffffffffffffffffffffffffffffff1614151561176757600080fd5b82518451148015611779575060008451115b15156117ed576040517f08c379a00000000000000000000000000000000000000000000000000000000081526004018080602001828103825260168152602001807f696e70757420706172616d65746572732077726f6e670000000000000000000081525060200191505060405180910390fd5b600560009054906101000a900460ff161580156118175750600560019054906101000a900460ff16155b151561188b576040517f08c379a00000000000000000000000000000000000000000000000000000000081526004018080602001828103825260158152602001807f7374616b696e67206973206e6f742066726f7a656e000000000000000000000081525060200191505060405180910390fd5b60008090505b8451811015611a4c5761191a84828151811015156118ab57fe5b906020019060200201516013600088858151811015156118c757fe5b9060200190602002015173ffffffffffffffffffffffffffffffffffffffff1673ffffffffffffffffffffffffffffffffffffffff1681526020019081526020016000205461387d90919063ffffffff16565b60136000878481518110151561192c57fe5b9060200190602002015173ffffffffffffffffffffffffffffffffffffffff1673ffffffffffffffffffffffffffffffffffffffff168152602001908152602001600020819055506119a0848281518110151561198557fe5b90602001906020020151600b5461387d90919063ffffffff16565b600b819055507f6a10b3116f6b38c50625bff001068c89f54342d735ab5a3df975d9c6868647b585828151811015156119d557fe5b9060200190602002015185838151811015156119ed57fe5b90602001906020020151604051808373ffffffffffffffffffffffffffffffffffffffff1673ffffffffffffffffffffffffffffffffffffffff1681526020018281526020019250505060405180910390a18080600101915050611891565b50600191505092915050565b600660009054906101000a900473ffffffffffffffffffffffffffffffffffffffff1681565b6000600260009054906101000a900473ffffffffffffffffffffffffffffffffffffffff168073ffffffffffffffffffffffffffffffffffffffff163373ffffffffffffffffffffffffffffffffffffffff16141515611add57600080fd5b83600560006101000a81548160ff02191690831515021790555082600560016101000a81548160ff021916908315150217905550600191505092915050565b6000600260009054906101000a900473ffffffffffffffffffffffffffffffffffffffff168073ffffffffffffffffffffffffffffffffffffffff163373ffffffffffffffffffffffffffffffffffffffff16141515611b7b57600080fd5b6000611b85613857565b9050600454600354820310151515611b9c57600080fd5b600080861415611bb757600954905084600981905550611bd7565b6001861415611bd157600a54905084600a81905550611bd6565b600080fd5b5b7fabd08d77cf1eed600c8ba851f4210365f6695aa58b9500aa52a83db7d8b534ba86828760405180848152602001838152602001828152602001935050505060405180910390a1600193505080600381905550505092915050565b600560009054906101000a900460ff1681565b600082600e60008273ffffffffffffffffffffffffffffffffffffffff1673ffffffffffffffffffffffffffffffffffffffff16815260200190815260200160002060009054906101000a900460ff161515611d09576040517f08c379a00000000000000000000000000000000000000000000000000000000081526004018080602001828103825260148152602001807f6e6f742077686974656c697374206f7261636c6500000000000000000000000081525060200191505060405180910390fd5b600560009054906101000a900460ff161515611d8d576040517f08c379a00000000000000000000000000000000000000000000000000000000081526004018080602001828103825260138152602001807f63616e5374616b65206973206e6f74207365740000000000000000000000000081525060200191505060405180910390fd5b60003390506009548410151515611e32576040517f08c379a00000000000000000000000000000000000000000000000000000000081526004018080602001828103825260268152602001807f7374616b696e6720616d74206c657373207468616e206d696e20616d7420726581526020017f717569726564000000000000000000000000000000000000000000000000000081525060400191505060405180910390fd5b600a54611e8785601160008973ffffffffffffffffffffffffffffffffffffffff1673ffffffffffffffffffffffffffffffffffffffff1681526020019081526020016000205461385f90919063ffffffff16565b11151515611f23576040517f08c379a00000000000000000000000000000000000000000000000000000000081526004018080602001828103825260218152602001807f657863656564696e6720746865206d6178696d756d20616d7420616c6c6f776581526020017f640000000000000000000000000000000000000000000000000000000000000081525060400191505060405180910390fd5b600760009054906101000a900473ffffffffffffffffffffffffffffffffffffffff1673ffffffffffffffffffffffffffffffffffffffff166323b872dd8230876040518463ffffffff167c0100000000000000000000000000000000000000000000000000000000028152600401808473ffffffffffffffffffffffffffffffffffffffff1673ffffffffffffffffffffffffffffffffffffffff1681526020018373ffffffffffffffffffffffffffffffffffffffff1673ffffffffffffffffffffffffffffffffffffffff1681526020018281526020019350505050602060405180830381600087803b15801561201c57600080fd5b505af1158015612030573d6000803e3d6000fd5b505050506040513d602081101561204657600080fd5b810190808051906020019092919050505015156120cb576040517f08c379a000000000000000000000000000000000000000000000000000000000815260040180806020018281038252601f8152602001807f6e6f7420656e6f75676820616c6c6f77616e6365206f722062616c616e63650081525060200191505060405180910390fd5b6001600f60008373ffffffffffffffffffffffffffffffffffffffff1673ffffffffffffffffffffffffffffffffffffffff16815260200190815260200160002060008773ffffffffffffffffffffffffffffffffffffffff1673ffffffffffffffffffffffffffffffffffffffff168152602001908152602001600020600101600082825401925050819055506000600f60008373ffffffffffffffffffffffffffffffffffffffff1673ffffffffffffffffffffffffffffffffffffffff16815260200190815260200160002060008773ffffffffffffffffffffffffffffffffffffffff1673ffffffffffffffffffffffffffffffffffffffff168152602001908152602001600020600001541415612270576001600f60008373ffffffffffffffffffffffffffffffffffffffff1673ffffffffffffffffffffffffffffffffffffffff16815260200190815260200160002060008773ffffffffffffffffffffffffffffffffffffffff1673ffffffffffffffffffffffffffffffffffffffff168152602001908152602001600020600001600082825401925050819055505b6040805190810160405280612283613857565b815260200185815250601060008373ffffffffffffffffffffffffffffffffffffffff1673ffffffffffffffffffffffffffffffffffffffff16815260200190815260200160002060008773ffffffffffffffffffffffffffffffffffffffff1673ffffffffffffffffffffffffffffffffffffffff1681526020019081526020016000206000600f60008573ffffffffffffffffffffffffffffffffffffffff1673ffffffffffffffffffffffffffffffffffffffff16815260200190815260200160002060008973ffffffffffffffffffffffffffffffffffffffff1673ffffffffffffffffffffffffffffffffffffffff168152602001908152602001600020600101548152602001908152602001600020600082015181600001556020820151816001015590505061240184601160008873ffffffffffffffffffffffffffffffffffffffff1673ffffffffffffffffffffffffffffffffffffffff1681526020019081526020016000205461385f90919063ffffffff16565b601160008773ffffffffffffffffffffffffffffffffffffffff1673ffffffffffffffffffffffffffffffffffffffff1681526020019081526020016000208190555061244d81613896565b8473ffffffffffffffffffffffffffffffffffffffff168173ffffffffffffffffffffffffffffffffffffffff167fe44ffc8f4f9e4d91d97c4fa852b7ca7360f5108ec3239384e93f01a33000149f866040518082815260200191505060405180910390a360019250505092915050565b600d6020528060005260406000206000915090505481565b6000600c80549050905090565b6000600560019054906101000a900460ff161515612569576040517f08c379a00000000000000000000000000000000000000000000000000000000081526004018080602001828103825260158152602001807f63616e556e7374616b65206973206e6f7420736574000000000000000000000081525060200191505060405180910390fd5b60003390508380156125ba57506000601360008373ffffffffffffffffffffffffffffffffffffffff1673ffffffffffffffffffffffffffffffffffffffff16815260200190815260200160002054115b156127da576000601360008373ffffffffffffffffffffffffffffffffffffffff1673ffffffffffffffffffffffffffffffffffffffff1681526020019081526020016000205490506000601360008473ffffffffffffffffffffffffffffffffffffffff1673ffffffffffffffffffffffffffffffffffffffff1681526020019081526020016000208190555061265d81600b5461387d90919063ffffffff16565b600b81905550600760009054906101000a900473ffffffffffffffffffffffffffffffffffffffff1673ffffffffffffffffffffffffffffffffffffffff1663a9059cbb83836040518363ffffffff167c0100000000000000000000000000000000000000000000000000000000028152600401808373ffffffffffffffffffffffffffffffffffffffff1673ffffffffffffffffffffffffffffffffffffffff16815260200182815260200192505050602060405180830381600087803b15801561272857600080fd5b505af115801561273c573d6000803e3d6000fd5b505050506040513d602081101561275257600080fd5b8101908080519060200190929190505050507ff70b8494683feeccc4f94533827959ff8cfd78cb0071db9145bcad99ebc6c2ea8282604051808373ffffffffffffffffffffffffffffffffffffffff1673ffffffffffffffffffffffffffffffffffffffff1681526020018281526020019250505060405180910390a1600192505050612a63565b831580156127e85750600083115b80156128335750601360008273ffffffffffffffffffffffffffffffffffffffff1673ffffffffffffffffffffffffffffffffffffffff168152602001908152602001600020548311155b15612a5e5761288a83601360008473ffffffffffffffffffffffffffffffffffffffff1673ffffffffffffffffffffffffffffffffffffffff1681526020019081526020016000205461387d90919063ffffffff16565b601360008373ffffffffffffffffffffffffffffffffffffffff1673ffffffffffffffffffffffffffffffffffffffff168152602001908152602001600020819055506128e283600b5461387d90919063ffffffff16565b600b81905550600760009054906101000a900473ffffffffffffffffffffffffffffffffffffffff1673ffffffffffffffffffffffffffffffffffffffff1663a9059cbb82856040518363ffffffff167c0100000000000000000000000000000000000000000000000000000000028152600401808373ffffffffffffffffffffffffffffffffffffffff1673ffffffffffffffffffffffffffffffffffffffff16815260200182815260200192505050602060405180830381600087803b1580156129ad57600080fd5b505af11580156129c1573d6000803e3d6000fd5b505050506040513d60208110156129d757600080fd5b8101908080519060200190929190505050507ff70b8494683feeccc4f94533827959ff8cfd78cb0071db9145bcad99ebc6c2ea8184604051808373ffffffffffffffffffffffffffffffffffffffff1673ffffffffffffffffffffffffffffffffffffffff1681526020018281526020019250505060405180910390a16001915050612a63565b600080fd5b92915050565b60136020528060005260406000206000915090505481565b600160009054906101000a900473ffffffffffffffffffffffffffffffffffffffff1681565b601060205282600052604060002060205281600052604060002060205280600052604060002060009250925050508060000154908060010154905082565b600080612af0613857565b9050600454600354820310151515612b0757600080fd5b60003390506000809054906101000a900473ffffffffffffffffffffffffffffffffffffffff1673ffffffffffffffffffffffffffffffffffffffff1663d04787a78260006040518363ffffffff167c0100000000000000000000000000000000000000000000000000000000028152600401808373ffffffffffffffffffffffffffffffffffffffff1673ffffffffffffffffffffffffffffffffffffffff16815260200182815260200192505050602060405180830381600087803b158015612bd157600080fd5b505af1158015612be5573d6000803e3d6000fd5b505050506040513d6020811015612bfb57600080fd5b8101908080519060200190929190505050600260006101000a81548173ffffffffffffffffffffffffffffffffffffffff021916908373ffffffffffffffffffffffffffffffffffffffff1602179055507ff7fa3b6184cd955c4d8db1b118f541d29ad3cde98ac41ffac1864077b27acc5b81600260009054906101000a900473ffffffffffffffffffffffffffffffffffffffff16604051808373ffffffffffffffffffffffffffffffffffffffff1673ffffffffffffffffffffffffffffffffffffffff1681526020018273ffffffffffffffffffffffffffffffffffffffff1673ffffffffffffffffffffffffffffffffffffffff1681526020019250505060405180910390a16001925050806003819055505090565b60095481565b60085481565b600560029054906101000a900473ffffffffffffffffffffffffffffffffffffffff1681565b6000601280549050905090565b6000600560019054906101000a900460ff161515612dda576040517f08c379a00000000000000000000000000000000000000000000000000000000081526004018080602001828103825260158152602001807f63616e556e7374616b65206973206e6f7420736574000000000000000000000081525060200191505060405180910390fd5b6000339050600f60008273ffffffffffffffffffffffffffffffffffffffff1673ffffffffffffffffffffffffffffffffffffffff16815260200190815260200160002060008473ffffffffffffffffffffffffffffffffffffffff1673ffffffffffffffffffffffffffffffffffffffff16815260200190815260200160002060000154600f60008373ffffffffffffffffffffffffffffffffffffffff1673ffffffffffffffffffffffffffffffffffffffff16815260200190815260200160002060008573ffffffffffffffffffffffffffffffffffffffff1673ffffffffffffffffffffffffffffffffffffffff1681526020019081526020016000206001015410158015612f6c57506000600f60008373ffffffffffffffffffffffffffffffffffffffff1673ffffffffffffffffffffffffffffffffffffffff16815260200190815260200160002060008573ffffffffffffffffffffffffffffffffffffffff1673ffffffffffffffffffffffffffffffffffffffff16815260200190815260200160002060000154115b1515612fe0576040517f08c379a000000000000000000000000000000000000000000000000000000000815260040180806020018281038252600b8152602001807f656d70747920717565756500000000000000000000000000000000000000000081525060200191505060405180910390fd5b612fe8613c6b565b601060008373ffffffffffffffffffffffffffffffffffffffff1673ffffffffffffffffffffffffffffffffffffffff16815260200190815260200160002060008573ffffffffffffffffffffffffffffffffffffffff1673ffffffffffffffffffffffffffffffffffffffff1681526020019081526020016000206000600f60008573ffffffffffffffffffffffffffffffffffffffff1673ffffffffffffffffffffffffffffffffffffffff16815260200190815260200160002060008773ffffffffffffffffffffffffffffffffffffffff1673ffffffffffffffffffffffffffffffffffffffff168152602001908152602001600020600001548152602001908152602001600020604080519081016040529081600082015481526020016001820154815250509050600061314960085461313b846000015161312d613857565b61387d90919063ffffffff16565b61387d90919063ffffffff16565b1115156131be576040517f08c379a00000000000000000000000000000000000000000000000000000000081526004018080602001828103825260198152602001807f7374616b696e6720706572696f64206e6f74207061737365640000000000000081525060200191505060405180910390fd5b601060008373ffffffffffffffffffffffffffffffffffffffff1673ffffffffffffffffffffffffffffffffffffffff16815260200190815260200160002060008573ffffffffffffffffffffffffffffffffffffffff1673ffffffffffffffffffffffffffffffffffffffff1681526020019081526020016000206000600f60008573ffffffffffffffffffffffffffffffffffffffff1673ffffffffffffffffffffffffffffffffffffffff16815260200190815260200160002060008773ffffffffffffffffffffffffffffffffffffffff1673ffffffffffffffffffffffffffffffffffffffff168152602001908152602001600020600001548152602001908152602001600020600080820160009055600182016000905550506001600f60008473ffffffffffffffffffffffffffffffffffffffff1673ffffffffffffffffffffffffffffffffffffffff16815260200190815260200160002060008673ffffffffffffffffffffffffffffffffffffffff1673ffffffffffffffffffffffffffffffffffffffff168152602001908152602001600020600001600082825401925050819055506133c18160200151601160008773ffffffffffffffffffffffffffffffffffffffff1673ffffffffffffffffffffffffffffffffffffffff1681526020019081526020016000205461387d90919063ffffffff16565b601160008673ffffffffffffffffffffffffffffffffffffffff1673ffffffffffffffffffffffffffffffffffffffff168152602001908152602001600020819055508373ffffffffffffffffffffffffffffffffffffffff168273ffffffffffffffffffffffffffffffffffffffff167f390b1276974b9463e5d66ab10df69b6f3d7b930eb066a0e66df327edd2cc811c83602001516040518082815260200191505060405180910390a3600760009054906101000a900473ffffffffffffffffffffffffffffffffffffffff1673ffffffffffffffffffffffffffffffffffffffff1663a9059cbb8383602001516040518363ffffffff167c0100000000000000000000000000000000000000000000000000000000028152600401808373ffffffffffffffffffffffffffffffffffffffff1673ffffffffffffffffffffffffffffffffffffffff16815260200182815260200192505050602060405180830381600087803b15801561353657600080fd5b505af115801561354a573d6000803e3d6000fd5b505050506040513d602081101561356057600080fd5b810190808051906020019092919050505015156135e5576040517f08c379a00000000000000000000000000000000000000000000000000000000081526004018080602001828103825260168152602001807f746f6b656e207472616e73666572206661696c7572650000000000000000000081525060200191505060405180910390fd5b6135ee82613896565b600192505050919050565b600560019054906101000a900460ff1681565b600080613617613857565b905060045460035482031015151561362e57600080fd5b600033905060008060009054906101000a900473ffffffffffffffffffffffffffffffffffffffff1673ffffffffffffffffffffffffffffffffffffffff1663d04787a78360016040518363ffffffff167c0100000000000000000000000000000000000000000000000000000000028152600401808373ffffffffffffffffffffffffffffffffffffffff1673ffffffffffffffffffffffffffffffffffffffff16815260200182815260200192505050602060405180830381600087803b1580156136fa57600080fd5b505af115801561370e573d6000803e3d6000fd5b505050506040513d602081101561372457600080fd5b8101908080519060200190929190505050905080600660006101000a81548173ffffffffffffffffffffffffffffffffffffffff021916908373ffffffffffffffffffffffffffffffffffffffff1602179055507f15e6fd7350f7af2ce778853ee3be32dfcc44a35f65529aaec8a1658ad17a284b8282604051808373ffffffffffffffffffffffffffffffffffffffff1673ffffffffffffffffffffffffffffffffffffffff1681526020018273ffffffffffffffffffffffffffffffffffffffff1673ffffffffffffffffffffffffffffffffffffffff1681526020019250505060405180910390a1600193505050806003819055505090565b600f602052816000526040600020602052806000526040600020600091509150508060000154908060010154905082565b600b5481565b600042905090565b600080828401905083811015151561387357fe5b8091505092915050565b600082821115151561388b57fe5b818303905092915050565b600080905060008090505b6012805490508110156139c5576138b6613c85565b600f60008573ffffffffffffffffffffffffffffffffffffffff1673ffffffffffffffffffffffffffffffffffffffff168152602001908152602001600020600060128481548110151561390657fe5b9060005260206000200160009054906101000a900473ffffffffffffffffffffffffffffffffffffffff1673ffffffffffffffffffffffffffffffffffffffff1673ffffffffffffffffffffffffffffffffffffffff16815260200190815260200160002060408051908101604052908160008201548152602001600182015481525050905080600001518160200151101580156139a8575060008160000151115b156139b75760019250506139c5565b5080806001019150506138a1565b506000600d60008473ffffffffffffffffffffffffffffffffffffffff1673ffffffffffffffffffffffffffffffffffffffff1681526020019081526020016000205490506000811115613baf57811515613baa576000600c8054905090506000600c60018303815481101515613a3857fe5b9060005260206000200160009054906101000a900473ffffffffffffffffffffffffffffffffffffffff16905081831015613b0d5780600c60018503815481101515613a8057fe5b9060005260206000200160006101000a81548173ffffffffffffffffffffffffffffffffffffffff021916908373ffffffffffffffffffffffffffffffffffffffff16021790555082600d60008373ffffffffffffffffffffffffffffffffffffffff1673ffffffffffffffffffffffffffffffffffffffff168152602001908152602001600020819055505b600c60018303815481101515613b1f57fe5b9060005260206000200160006101000a81549073ffffffffffffffffffffffffffffffffffffffff02191690556000600d60008773ffffffffffffffffffffffffffffffffffffffff1673ffffffffffffffffffffffffffffffffffffffff16815260200190815260200160002081905550600c805480919060019003613ba69190613c9f565b5050505b613c66565b8115613c6557600c8390806001815401808255809150509060018203906000526020600020016000909192909190916101000a81548173ffffffffffffffffffffffffffffffffffffffff021916908373ffffffffffffffffffffffffffffffffffffffff16021790555050600c80549050600d60008573ffffffffffffffffffffffffffffffffffffffff1673ffffffffffffffffffffffffffffffffffffffff168152602001908152602001600020819055505b5b505050565b604080519081016040528060008152602001600081525090565b604080519081016040528060008152602001600081525090565b815481835581811115613cc657818360005260206000209182019101613cc59190613ccb565b5b505050565b613ced91905b80821115613ce9576000816000905550600101613cd1565b5090565b9056fea165627a7a723058209c637d19108c27f02add4f6ceb660d1c1fd978dfc50dd7c9188a7163d6b6c7ea0029",
  "source": "pragma solidity ^0.5.0;\nimport { SafeMath } from \"../common/SafeMath.sol\";\nimport { Managed } from \"../common/Managed.sol\";\nimport { IERC20 } from \"../interfaces/IERC20.sol\";\n\n/// @title Stake\n/// @author duo.network\n\ncontract Stake is Managed {\n\tusing SafeMath for uint;\n\n\t/*\n     * Struct\n     */\n\tstruct QueueIdx {\n\t\tuint first;\n\t\tuint last;\n\t}\n\n\tstruct StakeLot {\n\t\tuint timestamp;\n\t\tuint amtInWei;\n\t}\n\n\t/*\n     * State\n     */\n\tbool public canStake;\n\tbool public canUnstake;\n\taddress public duoTokenAddress;\n\taddress public uploader;\n\tIERC20 duoTokenContract;\n\n\tuint public lockMinTimeInSecond;\n\tuint public minStakeAmtInWei = 500 * 1e18; // dynamiclly tunable\n\tuint public maxOracleStakeAmtInWei = 200000 * 1e18;  // dynamiclly tunable\n\tuint public totalAwardsToDistributeInWei = 0;\n\taddress[] public users;\n\tmapping (address => uint) public existingUsers;\n\n\tmapping (address => bool) public isWhiteListOracle;\n\tmapping (address => mapping(address => QueueIdx)) public userQueueIdx; // useraddress => oracle => queueIdx\n\tmapping (address => mapping (address => mapping(uint => StakeLot))) public userStakeQueue; // useraddress => oracle => stakeOrder => Stakelot\n\tmapping (address => uint) public totalStakAmtInWei;\n\taddress[] public oracleList;\n\tmapping (address => uint) public awardsInWei;\n\n\t/*\n     * Modifier\n     */\n\tmodifier isOracle(address addr) {\n\t\trequire(isWhiteListOracle[addr], \"not whitelist oracle\");\n\t\t_;\n\t}\n\n\t/*\n     * Events\n     */\n\tevent AddStake(address indexed from, address indexed oracle, uint amtInWei);\n\tevent Unstake(address indexed from, address indexed oracle, uint amtInWei);\n\tevent SetValue(uint index, uint oldValue, uint newValue);\n\tevent AddAward(address staker, uint awardAmtInWei);\n\tevent ReduceAward(address staker, uint awardAmtInWei);\n\tevent ClaimAward(address claimer, uint awardAmtInWei);\n\tevent UpdateUploader(address updater, address newUploader);\n\n\n\t/*\n     * Constructor\n     */\n\tconstructor(\n\t\taddress duoTokenAddr,\n\t\taddress[] memory oracleAddrList,\n\t\tuint lockTime,\n\t\tuint minStakeAmt,\n\t\tuint maxStakePerOracle,\n\t\taddress roleManagerAddr,\n\t\taddress opt,\n\t\taddress upl,\n\t\tuint optCoolDown\n\t\t)\n\t\tpublic\n\t\tManaged(roleManagerAddr, opt, optCoolDown)\n\t{\n\t\tuploader = upl;\n\t\tduoTokenAddress = duoTokenAddr;\n\t\tduoTokenContract = IERC20(duoTokenAddr);\n\t\tfor(uint i = 0; i<oracleAddrList.length; i++) {\n\t\t\tisWhiteListOracle[oracleAddrList[i]] = true;\n\t\t\toracleList.push(oracleAddrList[i]);\n\t\t}\n\t\tlockMinTimeInSecond = lockTime;\n\t\tminStakeAmtInWei = minStakeAmt;\n\t\tmaxOracleStakeAmtInWei = maxStakePerOracle;\n\t\tcanStake = false;\n\t\tcanUnstake = false;\n\t}\n\n\n\t/*\n     * Public Functions\n     */\n\tfunction stake(address oracleAddr, uint amtInWei) public isOracle(oracleAddr) returns(bool){\n\t\trequire(canStake, \"canStake is not set\");\n\t\taddress sender = msg.sender;\n\t\trequire(amtInWei >= minStakeAmtInWei, \"staking amt less than min amt required\");\n\t\trequire(totalStakAmtInWei[oracleAddr].add(amtInWei) <= maxOracleStakeAmtInWei, \"exceeding the maximum amt allowed\");\n\t\trequire(duoTokenContract.transferFrom(sender, address(this), amtInWei), \"not enough allowance or balance\");\n\t\tuserQueueIdx[sender][oracleAddr].last += 1;\n\t\tif(userQueueIdx[sender][oracleAddr].first == 0)\n\t\t\tuserQueueIdx[sender][oracleAddr].first += 1;\n\t\tuserStakeQueue[sender][oracleAddr][userQueueIdx[sender][oracleAddr].last] = StakeLot(getNowTimestamp(), amtInWei);\n\t\ttotalStakAmtInWei[oracleAddr] = totalStakAmtInWei[oracleAddr].add(amtInWei);\n\t\tcheckUser(sender);\n\t\temit AddStake(sender, oracleAddr, amtInWei);\n\t\treturn true;\n\t}\n\n\tfunction unstake(address oracleAddr) public returns(bool) {\n\t\trequire(canUnstake, \"canUnstake is not set\");\n\t\taddress sender = msg.sender;\n\t\trequire(\n\t\t\tuserQueueIdx[sender][oracleAddr].last >= userQueueIdx[sender][oracleAddr].first && userQueueIdx[sender][oracleAddr].first > 0, \"empty queue\"\n\t\t);  // non-empty queue\n\t\tStakeLot memory stake = userStakeQueue[sender][oracleAddr][userQueueIdx[sender][oracleAddr].first];\n\t\trequire(getNowTimestamp().sub(stake.timestamp).sub(lockMinTimeInSecond) > 0, \"staking period not passed\");\n\t\tdelete userStakeQueue[sender][oracleAddr][userQueueIdx[sender][oracleAddr].first];\n\t\tuserQueueIdx[sender][oracleAddr].first += 1;\n\t\ttotalStakAmtInWei[oracleAddr] = totalStakAmtInWei[oracleAddr].sub(stake.amtInWei);\n\t\temit Unstake(sender, oracleAddr, stake.amtInWei);\n\t\trequire(duoTokenContract.transfer(sender, stake.amtInWei), \"token transfer failure\");\n\t\tcheckUser(sender);\n\t\treturn true;\n\t}\n\n\tfunction batchAddAward(address[] memory addrsList, uint[] memory amtInWeiList) public only(uploader) returns(bool){\n\t\trequire(addrsList.length == amtInWeiList.length && addrsList.length > 0, \"input parameters wrong\");\n\t\trequire(!canStake && !canUnstake, \"staking is not frozen\");\n\t\tfor(uint i = 0;i<addrsList.length; i++) {\n\t\t\tawardsInWei[addrsList[i]] = awardsInWei[addrsList[i]].add(amtInWeiList[i]);\n\t\t\ttotalAwardsToDistributeInWei = totalAwardsToDistributeInWei.add(amtInWeiList[i]);\n\t\t\temit AddAward(addrsList[i], amtInWeiList[i]);\n\t\t}\n\t\trequire(duoTokenContract.balanceOf(address(this)) >= totalAwardsToDistributeInWei, \"not enough balance to give awards\");\n\t\treturn true;\n\t}\n\n\tfunction batchReduceAward(address[] memory addrsList, uint[] memory amtInWeiList) public only(uploader) returns(bool){\n\t\trequire(addrsList.length == amtInWeiList.length && addrsList.length > 0, \"input parameters wrong\");\n\t\trequire(!canStake && !canUnstake, \"staking is not frozen\");\n\t\tfor(uint i = 0;i<addrsList.length; i++) {\n\t\t\tawardsInWei[addrsList[i]] = awardsInWei[addrsList[i]].sub(amtInWeiList[i]);\n\t\t\ttotalAwardsToDistributeInWei = totalAwardsToDistributeInWei.sub(amtInWeiList[i]);\n\t\t\temit ReduceAward(addrsList[i], amtInWeiList[i]);\n\t\t}\n\t\treturn true;\n\t}\n\n\tfunction claimAward(bool isAll, uint amtInWei) public returns(bool) {\n\t\trequire(canUnstake, \"canUnstake is not set\");\n\t\taddress sender = msg.sender;\n\t\tif(isAll && awardsInWei[sender] > 0) {\n\t\t\tuint awardToClaim = awardsInWei[sender];\n\t\t\tawardsInWei[sender] = 0;\n\t\t\ttotalAwardsToDistributeInWei = totalAwardsToDistributeInWei.sub(awardToClaim);\n\t\t\tduoTokenContract.transfer(sender, awardToClaim);\n\t\t\temit ClaimAward(sender, awardToClaim);\n\t\t\treturn true;\n\t\t} else if (!isAll && amtInWei > 0 && amtInWei <= awardsInWei[sender]){\n\t\t\tawardsInWei[sender] = awardsInWei[sender].sub(amtInWei);\n\t\t\ttotalAwardsToDistributeInWei = totalAwardsToDistributeInWei.sub(amtInWei);\n\t\t\tduoTokenContract.transfer(sender, amtInWei);\n\t\t\temit ClaimAward(sender, amtInWei);\n\t\t\treturn true;\n\t\t} else {\n\t\t\trevert();\n\t\t}\n\t}\n\n\tfunction setStakeFlag(bool stake, bool unstake) public only(operator) returns(bool) {\n\t\tcanStake = stake;\n\t\tcanUnstake = unstake;\n\t\treturn true;\n\t}\n\n\tfunction checkUser(address user) internal {\n\n\t\tbool isUser = false;\n\t\tfor(uint i = 0; i < oracleList.length; i ++){\n\t\t\tQueueIdx memory queueIdx = userQueueIdx[user][oracleList[i]];\n\n\t\t\tif(queueIdx.last >= queueIdx.first && queueIdx.first > 0){\n\t\t\t\tisUser = true;\n\t\t\t\tbreak;\n\t\t\t}\n\t\t}\n\n\t\tuint userIdx = existingUsers[user];\n\n\t\tif(userIdx > 0){\n\t\t\tif(!isUser) {\n\t\t\t\tuint lastIdx = users.length;\n\t\t\t\taddress lastUser = users[lastIdx - 1];\n\t\t\t\tif (userIdx < lastIdx) {\n\t\t\t\t\tusers[userIdx - 1] = lastUser;\n\t\t\t\t\texistingUsers[lastUser] = userIdx;\n\t\t\t\t}\n\t\t\t\tdelete users[lastIdx - 1];\n\t\t\t\texistingUsers[user] = 0;\n\t\t\t\tusers.length--;\n\t\t\t}\n\t\t} else {\n\t\t\tif(isUser) {\n\t\t\t\tusers.push(user);\n\t\t\t\texistingUsers[user] = users.length;\n\t\t\t}\n\t\t}\n\t}\n\n\tfunction getOracleSize() public view returns(uint size) {\n\t\treturn oracleList.length;\n\t}\n\n\tfunction getUserSize() public view returns (uint) {\n\t\treturn users.length;\n\t}\n\n\tfunction getNowTimestamp() internal view returns (uint) {\n\t\treturn now;\n\t}\n\n\tfunction updateUploader() public inUpdateWindow() returns (bool) {\n\t\taddress updater = msg.sender;\n\t\taddress newAddr = roleManager.provideAddress(updater, 1);\n\t\tuploader = newAddr;\n\t\temit UpdateUploader(updater, newAddr);\n\t\treturn true;\n\t}\n\n\tfunction setValue(\n\t\tuint idx,\n\t\tuint newValue\n\t)\n\t\tpublic\n\t\tonly(operator)\n\t\tinUpdateWindow()\n\treturns (bool success) {\n\t\tuint oldValue;\n\t\tif (idx == 0) {\n\t\t\toldValue = minStakeAmtInWei;\n\t\t\tminStakeAmtInWei = newValue;\n\t\t} else if (idx == 1) {\n\t\t\toldValue = maxOracleStakeAmtInWei;\n\t\t\tmaxOracleStakeAmtInWei = newValue;\n\t\t}  else {\n\t\t\trevert();\n\t\t}\n\n\t\temit SetValue(idx, oldValue, newValue);\n\t\treturn true;\n\t}\n\n}\n",
  "sourcePath": "C:\\dev\\coinFront\\duo-contract\\contracts\\POS\\Stake.sol",
  "compiler": {
    "name": "solc",
    "version": "0.5.0+commit.1d4f565a.Emscripten.clang"
  },
  "schemaVersion": "3.0.1",
  "updatedAt": "2019-06-22T07:39:23.330Z",
  "devdoc": {
    "author": "duo.network",
    "methods": {},
    "title": "Stake"
  },
  "userdoc": {
    "methods": {}
  }
}